:020000040800F2
:10000000A88100202903000817480008F73D0008D0
:1000100015480008530A0008856D0008000000001C
:10002000000000000000000000000000690200085D
:10003000ED11000800000000C5020008E56400089A
:100040004303000843030008430300084303000878
:1000500043030008430300084D120008430300084F
:100060004303000843030008531200084303000839
:100070004D0C000843030008430300084303000835
:100080004303000843030008430300084303000838
:10009000A50A00084303000843030008591200089A
:1000A0004303000843030008430300084303000818
:1000B00043030008B5650008430300084303000834
:1000C00043030008430300084303000843030008F8
:1000D00043030008016C0008430300080D6C00088E
:1000E00043030008430300084303000843030008D8
:1000F00043030008430300084303000843030008C8
:1001000043030008430300084303000843030008B7
:1001100043030008430300084303000843030008A7
:1001200043030008590C0008650C00083111000851
:100130004303000843030008430300084303000887
:10014000B10A000843030008430300084303000802
:10015000430300083D11000843030008D16C000868
:100160004303000843030008430300084303000857
:100170004303000843030008430300080000000095
:10018000430300084303000800F002F800F05CF8A5
:100190000AA090E8000C82448344AAF10107DA45E2
:1001A00001D100F051F8AFF2090EBAE80F0013F0D8
:1001B000010F18BFFB1A43F001031847B4080100F0
:1001C000D40801000A444FF0000C10F8013B13F072
:1001D000070408BF10F8014B1D1108BF10F8015BA0
:1001E000641E05D010F8016B641E01F8016BF9D193
:1001F00013F0080F1EBF10F8014BAD1C0C1B09D1EA
:100200006D1E58BF01F801CBFAD505E014F8016B5B
:1002100001F8016B6D1EF9D59142D6D370470000ED
:100220000023002400250026103A28BF78C1FBD8FF
:10023000520728BF30C148BF0B6070471FB50FF091
:10024000F6FF1FBD10B510BD00F004FA1146FFF710
:10025000F5FF0CF017FF00F022FA03B4FFF7F2FFEE
:1002600003BC08F09DFA00002C4B19680868B0E840
:10027000F04F80F30988BFF36F8F4FF0000080F3D9
:10028000118870470000000008480068006880F38B
:1002900008884FF0000080F3148862B661B6BFF39F
:1002A0004F8FBFF36F8F00DF00BF00BF08ED00E08E
:1002B000DFF80C00016841F470010160704700BF75
:1002C00088ED00E0EFF30980BFF36F8F134B1A68DE
:1002D0001EF0100F08BF20ED108A20E9F04F1060CB
:1002E00009B44FF0500080F31188BFF34F8FBFF374
:1002F0006F8F0EF089FE4FF0000080F3118809BC6B
:1003000019680868B0E8F04F1EF0100F08BFB0EC95
:10031000108A80F30988BFF36F8F70474000002078
:10032000EFF30580704700000948804709480047FF
:10033000FEE7FEE7FEE7FEE7FEE7FEE7FEE7FEE795
:10034000FEE7FEE704480549054A064B70470000F2
:10035000A565000889010008A87B0020A88100206D
:10036000A87D0020A87D0020704753EA020C00F011
:1003700069802DE9F04B4FF00006002B1FBFB3FA48
:1003800083F503FA05F424FA05F65E4012BF16431E
:10039000B2FA82F502FA05F4C5F120051EBF22FA71
:1003A00005FC44EA0C04203556EA044C4FEA144498
:1003B00018BF641C4FF000084FF00009904271EB29
:1003C000030C39D3002919BFB1FA81F701FA07F6F6
:1003D000B0FA80F700FA07F6C7F120071EBF20FA2F
:1003E00007FC46EA0C062037B6FBF4FCA7EB050732
:1003F000103F07F01F0BCBF120060CFA0BFB2CFA79
:1004000006F644BFB3460026202FA4BF5E464FF039
:10041000000B5BEA060C08BF4FF0010B19EB0B0950
:10042000ABFB027C48EB0608C01B06FB02CC0BFBB7
:1004300003CC71EB0C01C1E70B460246414648462E
:10044000BDE8F08B13B54FF000004FF00001AFF3A3
:100450000080BDE81C40704710B5431C02E010F856
:10046000011B71B18107FAD14FF0013202C88C1A19
:100470008C4314EAC211F9D0C01A0A0603D0C01E78
:1004800010BDC01A10BD0A0401D0801E10BD0902A3
:10049000FCD0401E10BD032A40F2308010F0030C47
:1004A00000F0158011F8013BBCF1020F624498BFC7
:1004B00011F801CB00F8013B38BF11F8013BA2F164
:1004C000040298BF00F801CB38BF00F8013B11F0DF
:1004D000030300F02580083AC0F0088051F8043B7F
:1004E000083A51F804CBA0E80810F5E7121D5CBFEC
:1004F00051F8043B40F8043BAFF30080D20724BF1F
:1005000011F8013B11F801CB48BF11F8012B24BFB2
:1005100000F8013B00F801CB48BF00F8012B704701
:1005200010B5203AC0F00B80B1E81850203AA0E88E
:100530001850B1E81850A0E81850BFF4F5AF5FEAC2
:10054000027C24BFB1E81850A0E8185044BF18C975
:1005500018C0BDE810405FEA827C24BF51F8043B1C
:1005600040F8043B08BF7047D20728BF31F8023B70
:1005700048BF11F8012B28BF20F8023B48BF00F804
:10058000012B704702F0FF0343EA032242EA0242D2
:1005900000F002B84FF000020429C0F0128010F001
:1005A000030C00F01B80CCF1040CBCF1020F18BF4F
:1005B00000F8012BA8BF20F8022BA1EB0C0100F0E2
:1005C0000DB85FEAC17C24BF00F8012B00F8012BB5
:1005D00048BF00F8012B70474FF0000200B51346EA
:1005E00094469646203922BFA0E80C50A0E80C5053
:1005F000B1F12001BFF4F7AF090728BFA0E80C5004
:1006000048BF0CC05DF804EB890028BF40F8042BFC
:1006100008BF704748BF20F8022B11F0804F18BF69
:1006200000F8012B7047704770477047704710B54E
:1006300000F00CF8006810BD10B5044600F006F894
:10064000046010BD00487047487B00200048704798
:10065000487B00207546FFF7F5FFAE46050069466A
:10066000534620F00700854618B020B5FFF76AFE14
:10067000BDE820404FF000064FF000074FF00008A3
:100680004FF0000B21F00701AC46ACE8C009ACE824
:10069000C009ACE8C009ACE8C0098D46704710B588
:1006A0000446AFF300802046BDE81040FFF7D5BDFB
:1006B00001221021014801F0E2BD000000000240CB
:1006C00000221021014801F0DABD000000000240C4
:1006D0007047000001221146014801F0D0BD000022
:1006E0000004024000220121014801F0C8BD0000C1
:1006F0000004024030B5437804781B021BB2234348
:1007000000EE103A1B4CB8EEC00AD4ED000A20EE01
:10071000200A81ED000AC37885781B021BB22B43A7
:1007200000EE103AF8EEC00A94ED000A60EE800A7E
:10073000C1ED010A437904791B021BB2234300EE89
:10074000903AF8EEE00A20EE800A81ED020A017A82
:10075000C3790904807941EA0321014300EE101AAC
:10076000DFED050AB8EE400A20EE200A82ED000A0D
:1007700030BD0000C401002000401C42704730B56D
:1007800004464FF47A7502E0284600F004F8641E2F
:10079000A4B2F9D230BD70B500214FF0E0256C69EC
:1007A000A8225043AB69AA699A42FCD003D2A3EBBA
:1007B0000203194403E0A4EB020633441944134630
:1007C0008142F0D370BD000010B542780378120268
:1007D00012B21A4300EE102A124BB8EEC00AD3ED43
:1007E000010A20EE200A81ED000AC2788478120204
:1007F00012B2224300EE102AF8EEC00A93ED010A6D
:1008000060EE800AC1ED010A42790079120212B24B
:10081000024300EE902AF8EEE00A20EE800A81ED15
:10082000020A10BDC401002010B5FFF751FFFFF709
:10083000A5FF08F073F808B1802402E007F0E0FF9C
:10084000044608F031FA10B144F0400010BD08F041
:10085000BDF9204310BD00002DE9FC4104460D46C2
:100860001646002000900190FFF72AFF922000F02A
:10087000BFF806226946122000F09CF8FFF718FF27
:100880009DF801009DF80010000200B2084300EE40
:10089000100A474FB8EEC00AD7ED000A20EE200A32
:1008A00085ED000A9DF803009DF80210000200B2D9
:1008B000084300EE100AF8EEC00A97ED000A60EE59
:1008C000800AC5ED010A9DF805009DF8041000029C
:1008D00000B2084300EE900AF8EEE00A20EE800A2B
:1008E00085ED020AFFF7FEFE08226946002000F0AF
:1008F00061F8FFF7EFFE9DF800000F2830D19DF85A
:1009000003009DF80210000200B2084300EE100A36
:10091000D7ED010AB8EEC00A20EE200A84ED000AE5
:100920009DF805009DF80410000200B2084300EE97
:10093000100AF8EEC00A97ED010A60EE800AC4EDD5
:10094000010A9DF807009DF80610000200B2084356
:1009500000EE900AF8EEE00A20EE800A84ED020A2A
:10096000FFF7AEFEA22000F043F8022269462220E3
:1009700000F020F8FFF79CFE9DF800009DF80110A4
:10098000C00040EA5110B0F5806F02DBA0F50060B6
:1009900000B200EE100AB4EE001AF8EEC00AB3EE90
:1009A000070A00EE810A86ED000ABDE8FC8100001E
:1009B000C401002070B50D46144640F0800000F0E0
:1009C00017F806E0552000F013F805F8010B641E37
:1009D000E4B2002CF6D170BD10B50C4640F080009A
:1009E00000F006F8552000F003F8207010BD00005C
:1009F00001B582B04FF47A700090012301AA02A9D8
:100A0000024802F039FA9DF804000EBD10050020DE
:100A100002784078D20042EA5010B0F5806F02DBD5
:100A2000A0F5006000B200EE100AB4EE001AF8EE75
:100A3000C00AB3EE070A00EE810A81ED000A704792
:100A400010B50C46FFF7D4FF2046BDE81040FFF775
:100A5000CFBFFEE7C8200EF005FA08F00FFB08F044
:100A600005FB0E4D0E4C00262878012801D1217877
:100A700019B138B92078012804D108F0FFFA20789C
:100A8000401C2070287828B92078022802D108F06C
:100A9000EDFA267064200EF0E5F9E5E7AC000020E1
:100AA000A8000020014800F005BE0000A0040020BE
:100AB000014800F0FFBD0000C80400204FF4FA70A8
:100AC0000EF0D0F908F0F0FA08F006FB0AF014F87E
:100AD00001200EF0C7F9F7E72DED028B4FF4C87037
:100AE0000EF0C0F908F034FB08F03AFC4D4D4E4EC4
:100AF0009FED4E8A00244E4FDFF83881DFF83891A1
:100B00001AE000231A46194618460BF065FC00232C
:100B10001A46194618460BF087FCB0EE480AB0EEAC
:100B2000402AF0EE401AB0EE401AF0EE400A0BF008
:100B300077FD64200EF096F9287831780843E0D1EB
:100B400008F064FB08F06CFC99F8000009280FD944
:100B500078683B8900EE100A98F80C00B8F80A1083
:100B6000C0F34002354800780BF024FD89F80040BE
:100B700099F80000401C89F8000099F8010001284C
:100B800020D92F4890EDF60ABDEEC00A10EE101ADB
:100B900090EDAC0A0BB2BDEEC00A10EE101A90ED4B
:100BA000620A0AB2BDEEC00A10EE101A90ED180AE1
:100BB00009B2BDEEC00A10EE100A00B20BF00CFC38
:100BC00089F8014099F80100401C89F80100B0EE55
:100BD000480A1C48F0EE401AB0EE401A90ED2C2A5C
:100BE000F0EE400A0BF01CFDB9F8040009280FD9FB
:100BF000786801EE100AB8F80A0000EE100A1248F0
:100C0000B8EE400AD0ED000A0CF066FBA9F80440EB
:100C1000B9F80400401CA9F8040001200EF022F9E4
:100C20008AE70000E5000020E60000200000000048
:100C30005F60002052600020CC000020BC0100203A
:100C4000FC6B00208C77002004020020014801F09A
:100C50007BB8000068080020014801F075B800006A
:100C6000C80800202DE9F05FFA48FB4AFA4DC06C35
:100C7000FA4EF94F0068DFF8E4C3DFF8DC83DFF8F1
:100C8000DC93DFF8D4A3DFF8D4B3DFF8CCE3F34C84
:100C9000483D60361837D1140CF1180CA8F1300813
:100CA00009F178090AF1300A0BF1300BAEF1180E98
:100CB00090423ED9E84A543A1368A04201D120221A
:100CC00035E0A84201D1202231E0B04201D12022FA
:100CD0002DE0B84201D1202229E0604501D10A4629
:100CE00025E0404501D10A4621E0484501D10A46A8
:100CF0001DE0504501D10A4619E0584502D14FF494
:100D0000001214E0704502D14FF400120FE0D34AF4
:100D10009032904202D14FF4001208E0CE4A48329D
:100D2000904202D14FF4001201E04FF000621340F4
:100D3000C3E0CA4AA83290423ED9C74A583A13681B
:100D4000A04201D1202235E0A84201D1202231E089
:100D5000B04201D120222DE0B84201D1202229E069
:100D6000604501D10A4625E0404501D10A4621E00F
:100D7000484501D10A461DE0504501D10A4619E017
:100D8000584502D14FF4001214E0704502D14FF4DF
:100D900000120FE0B14A9032904202D14FF400129B
:100DA00008E0AD4A4832904202D14FF4001201E00F
:100DB0004FF00062134080E0A84A483290423ED98A
:100DC000A64A103A5368A04201D1202235E0A84239
:100DD00001D1202231E0B04201D120222DE0B842E1
:100DE00001D1202229E0604501D10A4625E0404595
:100DF00001D10A4621E0484501D10A461DE050458F
:100E000001D10A4619E0584502D14FF4001214E00E
:100E1000704502D14FF400120FE0904A9032904298
:100E200002D14FF4001208E08B4A4832904202D1BE
:100E30004FF4001201E04FF0006213403DE0874A9A
:100E4000103A1368A04201D1202235E0A84201D116
:100E5000202231E0B04201D120222DE0B84201D160
:100E6000202229E0604501D10A4625E0404501D114
:100E70000A4621E0484501D10A461DE0504501D10E
:100E80000A4619E0584502D14FF4001214E07045AB
:100E900002D14FF400120FE0704A9032904202D11A
:100EA0004FF4001208E06C4A4832904202D14FF4ED
:100EB000001201E04FF000621340002B72D0664A2E
:100EC000904235D9A04201D120212DE0A84201D184
:100ED000202129E0B04201D1202125E0B84201D1F2
:100EE000202121E060451FD040451DD048451BD042
:100EF000504519D0584502D14FF4001114E0704507
:100F000002D14FF400110FE054499031884202D1D0
:100F10004FF4001108E050494831884202D14FF4A3
:100F2000001101E04FF000614B484C380160ADE02A
:100F30004A4AA832904236D9A04201D120212DE060
:100F4000A84201D1202129E0B04201D1202125E091
:100F5000B84201D1202121E060451FD040451DD07D
:100F600048451BD0504519D0584502D14FF40011C7
:100F700014E0704502D14FF400110FE03749903171
:100F8000884202D14FF4001108E0334948318842C9
:100F900002D14FF4001101E04FF000612E485038AB
:100FA000016073E0B6E02D4A4832904235D9A04244
:100FB00001D120212DE0A84201D1202129E0B04219
:100FC00001D1202125E0B84201D1202121E0604556
:100FD0001FD040451DD048451BD0504519D058451D
:100FE00002D14FF4001114E0704502D14FF400110A
:100FF0000FE01A499031884202D14FF4001108E005
:1010000015494831884202D14FF4001101E04FF0F8
:10101000006112481038C16038E0A04201D120219F
:1010200031E0A84201D120212DE0B04201D12021A0
:1010300029E0B84201D1202125E0604523D0404578
:1010400021D048451FD050451DD0584508D14FF4F8
:10105000001118E0100500205864024010600240A2
:10106000704502D14FF400110DE02B49884202D1A6
:101070004FF4001107E02949884202D14FF40011D2
:1010800001E04FF000612448A0388160244C2078B2
:1010900080070CD5207820F002002070207840F0E6
:1010A00004002070012211461E4801F0E8F8607823
:1010B0001D4D80070CD5607820F0020060706078CC
:1010C00040F00400607001221021284601F0D7F89A
:1010D000A07880070CD5A07820F00200A070A0783E
:1010E00040F00400A07001221021284601F0C7F84A
:1010F0000BF07CFE207840070CD5207820F004000F
:101100002070207840F0080020700848016841F005
:1011100001010160BDE8F09FA0600240A0640240B0
:10112000080100200004024000000240103C014081
:10113000014800F009BE0000C8050020014800F089
:1011400003BE0000280900200168CAB2103A182323
:10115000B2FBF3F2064B9B5CC3656FF30901032AF4
:1011600002D9091D816500E08165806D704700002E
:101170007803010810B5014600208A6A8B694FF098
:10118000C074002B0ED0B3F5005F1AD062B3012AF1
:101190002AD0022A28D0032A03D1C96AC90100D55E
:1011A000012010BD1AB1012A06D0022AF9D1C96A5C
:1011B000C901F6D5012010BDC96AA142FBD10120A9
:1011C00010BD52B1012A0AD0022A06D0032AF7D153
:1011D000C96AA142F4D1012010BD012010BDC96A25
:1011E000C901FBD5012010BD012010BD70470000D2
:1011F00064200DF037FE08F065FF64200DF032FE2C
:10120000104D114C09F0C4FF60700AF00DF8A07089
:101210000BF018FCE0700BF05FFB2071E88A810591
:1012200006D5400404D5207810B1401E207001E09E
:1012300032202070207808B901F0F8F814200DF061
:1012400011FEDFE7C4790020E4000020012000F057
:101250001BBF102000F018BF202000F015BF72B691
:10126000FEE7000010EE100A0449020E0A70020C9C
:101270004A70020A8A70C87008467047F40100205C
:10128000C0F30720704700002DED028B4FF4FA7079
:101290000DF0E8FD09F03CF808F030FF0BF078FBAA
:1012A0000BF078FA304D314C9FED318A314E14E01D
:1012B00000231A46194618460BF066F8B0EE480AA5
:1012C000B0EE402AF0EE401AB0EE401AF0EE400ABE
:1012D0000BF026FF64200DF0C5FD28782178084327
:1012E000E6D108F0D1FF0BF03BFB09F0C3F83089E1
:1012F000132809D92048D0F8030000EE100AF0792D
:101300000BF030F9002030813089401C3081708929
:1013100003280CD31948D0ED001A90ED031AD0ED34
:10132000020A90ED010A0BF0D1F80120708170895A
:10133000401C7081F0EE480A1148B0EE602AF0EED1
:10134000601A90ED170AB0EE601A0BF0E9FE0D4836
:1013500000231946B0F9142118460BF065F8012056
:101360000DF080FDB9E70000E5000020E600002058
:1013700000000000F2000020B30100203C5E0020CD
:1013800040780020DC79002090F82020012A07D046
:10139000022A05D0416A41F4802141620120704750
:1013A000006842690A43426100207047F0B590F836
:1013B00020500468A468012D07D0022D05D0416A91
:1013C00041F4802141620120F0BD04F0806504F009
:1013D0000066354301D1E50053D5C4F3016401250E
:1013E000A5401D608B684FF4C0759BB1CE6805EBBE
:1013F000041733434E6843EAC6030668F3514FF4BB
:10140000C273076803EB04130E69FE50097D0129BE
:1014100009D00DE00E88CB6805EB041743EA46536C
:101420000668F351EBE70168CE5846F48076CE505B
:101430001179D379567941EA036193791B0443EA20
:10144000062319434FF4C676036806EB0416995138
:101450001178D37841EA0361937852781B0443EA08
:10146000022211434FF4C473026803EB0413D150FA
:10147000006805EB0411425842F00102425000207E
:10148000F0BD416A41F4001141620120F0BD00004D
:1014900010B590F82020012A07D0022A05D0416A11
:1014A00041F480214162012010BD3C4800F50070EC
:1014B000026842F001020260026822F47C5202607B
:1014C00002684B6A42EA032202600A7D02F01F03AF
:1014D00001229A40C3699343C361A0F50070CB69B0
:1014E000B3B9D0F80C329343C0F80C328C894B68F6
:1014F00064F31F434C6900EBC404C4F840320C8908
:101500000B6864F31F434C6900EBC404C4F8443215
:10151000CB69012B16D1D0F80C321343C0F80C3232
:101520000C884B6864F31F434C6900EBC404C4F897
:1015300040320C89CB6864F31F434C6900EBC40450
:10154000C4F844328B697BB1D0F804321343C0F83D
:1015500004320B6973B1D0F814321343C0F814325B
:10156000096A01290CD010E0D0F804329343C0F886
:101570000432EEE7D0F814329343C0F81432EFE7A8
:10158000D0F81C121143C0F81C12D0F8001221F040
:101590000101C0F80012002010BD000000640040EE
:1015A000704770B590F82040012C07D0022C05D070
:1015B000416A41F480214162012070BD21B104687B
:1015C0002469A4072AD003E00468E468A4071FD0B4
:1015D0004FF4D874056804EB01142D5905F0040587
:1015E00095600DB305682D59ED08556005682C59B7
:1015F00004F00204D4604FF4DA74056804EB0114BB
:101600002E5906F00F06082E13D30825156114E095
:10161000416A41F400114162012070BD416A41F408
:1016200000114162012070BD05682D596D0D1560D6
:10163000DCE72D5905F00F05156105682D59C5F337
:101640000725956105682C59240C54614FF4DC7210
:10165000046802EB0112A4581C700468A458240A00
:101660005C700468A458240C9C700468A258120E84
:10167000DA704FF4DE72046802EB0112A4581C7198
:101680000468A458240A5C710468A458240C9C7152
:101690000468A258120EDA7131B10068016941F094
:1016A00020010161002070BD0068C16841F0200187
:1016B000C160F7E72DE9F05F054600242868466918
:1016C000D0F804908768D0F80CA0D0F810B0D0F80B
:1016D0001880F10748D0F90714D001218160B807BC
:1016E00003D5284600F0D0FA0CE0780702D54FF475
:1016F000006407E0380702D54FF4805402E0284622
:1017000000F0C1FAF80516D529684FF4807088609A
:10171000B80503D5284600F0B9FA0CE0780502D5E3
:1017200044F4005407E0380502D544F4804402E054
:10173000284600F0AAFAF80316D529684FF480303D
:101740008860B80303D5284600F0A2FA0CE07803BD
:1017500002D544F4004407E0380302D544F4803451
:1017600002E0284600F093FA300707D55FEACA6026
:1017700004D544F4007429681020C86070074FF045
:10178000080707D55FEA0A7004D52868C7602846AD
:1017900000F0B8F9B00706D52868C068800702D005
:1017A000284600F0B1F9700607D55FEACB6004D592
:1017B00044F48064296810200861B00607D55FEA08
:1017C0000B7004D528680761284600F02DFAF00652
:1017D00006D528680069800702D0284600F025FA5F
:1017E000B00308D55FEAC96005D5296810204860B4
:1017F000284600F01BFAF00307D55FEA097004D50C
:1018000028684760284600F044FA300446D55FEA6D
:10181000497040D5F00504D55FEAC87001D044F0A6
:101820000104B00504D55FEA887001D544F00204D4
:10183000700504D55FEA487001D544F00404300512
:1018400029D518F0700F26D008F07000402815D068
:1018500006DC102809D020280AD0302816D10AE04A
:1018600050280ED0602811D10EE044F008040DE09D
:1018700044F010040AE044F0200407E044F040047F
:1018800004E044F0800401E044F480742868816935
:1018900021F070018161296804204860002C05D086
:1018A000686A204368622846FFF77AFEBDE8F09F29
:1018B00070B50446002C03D094F8200010B104E069
:1018C000012070BD204600F09DF82068016841F0BD
:1018D0000101016000F0DAFC054605260CE000F08D
:1018E000D5FC401B0A2807D9606A40F400306062CA
:1018F00084F82060012070BD20684068C007EED0E9
:101900002068016821F00201016000F0BFFC05467B
:101910000CE000F0BBFC401B0A2807D9606A40F4C9
:101920000030606284F82060012070BD206840684B
:101930008007EED4207E01283FD02068016821F086
:1019400080010160607E01283DD02068016821F09F
:1019500040010160A07E01283BD02068016821F091
:1019600020010160E07E012839D02068016841F043
:1019700010010160207F012837D02068016821F024
:1019800008010160607F012835D02068016821F0DE
:1019900004010160D4E902010843D4E904121143AF
:1019A00008436168491E08432168C86100206062DD
:1019B000012084F82000002070BD2068016841F0FB
:1019C00080010160BEE72068016841F040010160CC
:1019D000C0E72068016841F020010160C2E720688B
:1019E000016821F010010160C4E72068016841F03E
:1019F00008010160C6E72068016841F00401016048
:101A0000C8E700002DE9F04186B00446142101A882
:101A1000FEF7E2FD364B374ADFF8D08018682168C0
:101A2000344C03260227401C103200254FF0090CCD
:101A3000414527D11860012807D1106840F0007097
:101A40001060106800F000700090206840F00800FE
:101A50002060206800F0080000900196029703952E
:101A60000496CDF814C001A9234800F019FB002208
:101A70000521142000F0A8FC142000F097FC06B00B
:101A8000BDE8F081DFF874804145F8D1116841F07C
:101A900080611160116801F0806100911860012877
:101AA00007D1106840F000701060106800F00070FE
:101AB0000090206840F002002060206800F00200E2
:101AC000009060200190029703950496CDF814C011
:101AD00001A90B4800F0E4FA00220521402000F0A3
:101AE00073FC402000F062FCC9E700000064004085
:101AF0002C00002030380240000C024000680040FA
:101B0000000402407047000030B589B005466B46BE
:101B100002AA00212846FFF744FD049890B10398DB
:101B2000FFF7AEFB38498860062809D10398000EFC
:101B300064D069463548039A0BF0A4F808F072FCAB
:101B400009B030BD324885423AD1029840F20323B1
:101B500000240246A0F20321984210D008DC042899
:101B60001CD0A0F50070013809D0012828D106E06A
:101B7000012904D0042916D0FE2921D11CE0521ECF
:101B8000D4B2224904EB8400643901EB4000694679
:101B90000BF0B6F8204607F0ABFB11E01D48694694
:101BA0000BF01EF80CE0194869463C380BF0A8F819
:101BB000204609F0FDFE03E0694617480AF0D0FF11
:101BC00016488542BCD10298FF2809D0A0F5407084
:101BD0000638B5D10C486946801C0BF04DF8AFE7CC
:101BE0000D48694610300AF095FF0B48DFED0C0AEE
:101BF0009FED0C0A183008F06FFAA1E703499DF831
:101C00000000C8759CE70000F0010020346B002044
:101C1000C80400208C7700207C790020A0040020DC
:101C20003333B33E6666E6BE70477047704770B5A3
:101C3000044694F82000012805D0606A40F4002092
:101C40006062012070BD022084F8200020680168D5
:101C500021F00101016000F019FB05460DE000F0E4
:101C600015FB401B0A2808D9606A40F40030606206
:101C7000052084F82000012070BD20684068C0075E
:101C8000EDD1606270BD7047704770477047704714
:101C9000704770472DE9F0410446A76D00F0F6FA51
:101CA000054694F835000026022806D0802060659D
:101CB00084F834600120BDE8F0812068016821F0DB
:101CC000160101602068416921F080014161206CAA
:101CD00008B9A06C20B12068016821F008010160FA
:101CE0002068016821F0010101600BE000F0CEFAEC
:101CF000401B052806D92020343420620320607060
:101D00002670D8E720680068C007EFD134343F2040
:101D100094F828108840B860012060702670002078
:101D2000C9E790F83510022903D0802141650120D0
:101D30007047052180F835100068016821F0010125
:101D400001600020704700002DE9F84304464FF081
:101D50000009CDF800906F484FF416510068B0FBB1
:101D6000F1F7A56D2E6894F85C00082202FA00F1E4
:101D7000314210D02068016849070CD5016821F074
:101D80000401016094F85C0002FA00F1A960606D42
:101D900040F00100606594F85C104FF0010808FA0B
:101DA00001F0304208D021684969090604D5A860CD
:101DB000606D40F00200606594F85C10042088407B
:101DC000304208D021680968890704D5A860606D91
:101DD00040F00400606594F85C10102088403042A8
:101DE00020D02168096809071CD5A860206801680F
:101DF00049030CD50068000304D4216C91B120463E
:101E000088470FE0A16C69B1204688470AE0016865
:101E1000C90503D4016821F008010160216C09B1F2
:101E20002046884794F85C102020884030424CD0EF
:101E300021680968C90648D5A86094F835000528C6
:101E40000BD020680168490330D50068000328D40E
:101E5000616C51B32046884737E02068016821F063
:101E6000160101602068416921F080014161206C08
:101E700008B9A06C20B12068016821F00801016058
:101E800094F85C103F208840A86084F8358084F87E
:101E90003490216D00293BD001B02046BDE8F043CD
:101EA0000847E16B09B1204688470EE00168C90583
:101EB00007D4016821F01001016084F8358084F8AE
:101EC0003490E16B09B120468847606D00281FD02F
:101ED000606DC00714D0052084F8350020680168C3
:101EE00021F0010101600098401C0090B84203D825
:101EF00020680068C007F6D184F8358084F83490F3
:101F0000E16C002904D001B02046BDE8F043084749
:101F1000BDE8F8833C0000202DE9F041044600F0C4
:101F2000B5F905465CB1022084F83500002684F836
:101F300034602068016821F0010101600DE001209A
:101F4000BDE8F08100F0A2F9401B052805D920204A
:101F50006065032084F83500F2E720680068C00758
:101F6000F0D121680A6820480240D4E901031843EF
:101F7000D4E903352B43184363691843A369184315
:101F8000E3691843236A18431043626A042A03D1A1
:101F9000D4E90B231A43104308602068406920F0FD
:101FA0000700656A29460543012704290DD1A06A67
:101FB0000543E06A48B12046FFF7DCF828B140202D
:101FC000606584F835700120BAE7206845612046D5
:101FD000FFF7BAF894F85C203F2191408160666574
:101FE00084F835700020ABE73F8010F070B50446F0
:101FF00000F04CF90546601C02D004480078044407
:1020000000F044F9401BA042FAD370BD300000201C
:1020100010B51B4C102818D0202825D0012813D12A
:102020000DF078F901280FD004F12001606A0CF05E
:1020300041FF206A002807D012494FF08050086005
:10204000BFF34F8FBFF36F8F10BD607840F001007A
:102050006070A07840F00100A070E0780028F3D014
:10206000BDE810400AF0C2BE207840F001002070A8
:10207000E0780028E8D0BDE810400AF0B7BE0000C4
:102080000801002004ED00E010B504490A6802428E
:1020900002D00860FFF7BCFF10BD0000143C0140F7
:1020A0002DE9F84F0022DFF89C914FF0010803273B
:1020B0004FF00F0C09F1040AA9F1040B08FA02F51C
:1020C0000B682B40AB426ED10C7904F00304012C59
:1020D00001D0022C15D18668540007FA04FE26EAC6
:1020E0000E06D1F80CE00EFA04FE4EEA060EC0F819
:1020F00008E04468AC430D79C5F3001595402543CD
:1021000045600C79E443A40708D0C568540007FA79
:1021100004F6B5438E68A6402E43C6600C7904F0E1
:102120000304022C11D1D40800EB8406356A54074D
:10213000E40E0CFA04FE25EA0E05D1F810E00EFAC2
:1021400004FE4EEA050EC6F820E00568540007FAC2
:1021500004F6B5430E7906F00306A6402E4306604A
:102160004C6814F4403F67D0374C256845F48045EF
:102170002560246804F480440094344C22F0030564
:102180002E19D6F8085894074FEA147E0CFA0EF46C
:10219000A5432F4CA04201D1002424E02D4CA042A5
:1021A00002D101241FE047E02B4CA04201D10224C0
:1021B00019E02A4CA04201D1032414E0284CA0428B
:1021C00001D104240FE0274CA04201D105240AE0EC
:1021D000254CA04201D1062405E0244CA04201D1A7
:1021E000072400E0082404FA0EF42C43C6F808483B
:1021F000D9F800409C434D68ED0200D51C43C9F856
:102200000040DAF800409C434D68AD0200D51C4305
:10221000CAF80040DBF800409C434D68AD0300D590
:102220001C43CBF80040074D083D2C689C434E688A
:10223000F60300D51C432C60521C102AFFF43EAF5D
:10224000BDE8F88F083C01404438024000300140AE
:10225000000002400004024000080240000C02405E
:10226000001002400014024000180240001C02400E
:102270000069084201D00120704700207047002A01
:1022800001D081617047090481617047014880680D
:102290007047000030000020024881680278114435
:1022A000816070473000002010B50B48016841F490
:1022B00000710160016841F480610160016841F4CE
:1022C00080710160032000F09FF80F2000F006F8F5
:1022D00000F050F8002010BD003C024030B587B03F
:1022E000054600241E48016841F0020101600068B3
:1022F00000F00200009001A902A800F0F3F905988F
:10230000A8B100F013FA40001649B0FBF1F1491EE4
:102310001648154A026040F2E732C260416004612B
:102320008460846100F01AFF04461CB115E000F0DF
:10233000FDF9E9E70D4800F077FF04466CB91D2070
:1023400000F034F8102D07D2002229461D2000F09D
:102350003BF80748056000E0012407B0204630BD87
:102360004038024040420F0000040040880900202D
:102370003400002082B00C48016841F480410160C3
:10238000006800F4804001900748001F016841F098
:1023900080510160006800F08050019000220F2100
:1023A000901E02B000F010B844380240002809DB4B
:1023B00000F01F02012191404009800000F1E0205F
:1023C000C0F8001170470000F0B40D460D4B1B68BB
:1023D000C3F30223C3F10704042C00D90424191DFC
:1023E000072901D2002300E0DB1E012606FA04F1D2
:1023F000491E294099409E40761E16403143F0BC4C
:1024000004F0ECBC0CED00E000F00701054A106898
:102410004FF6FF03184040EA0120034908431060CB
:10242000704700000CED00E00000FA05BFF34F8F8D
:1024300005480168054A01F4E06111430160BFF3FA
:102440004F8F00BFFDE700000CED00E00400FA052F
:102450002DE9F84304464FF0010820684FF00007CB
:10246000C10701D140072BD5DFF81891C9F8687072
:10247000FFF70CFF0646444D07E0FFF707FF801B00
:10248000022802D90320BDE8F88328680001F4D4AB
:102490006068217A800140EA01703B49843108601C
:1024A000C9F86880FFF7F2FE064606E0FFF7EEFE89
:1024B000801B022801D90320E5E728680001F5D533
:1024C0002078800753D530484030016841F0805172
:1024D0000160006800F0805000902C4D286840F4A6
:1024E00080702860FFF7D2FE064606E0FFF7CEFEBA
:1024F000801B022801D90320C5E72868C005F5D54F
:10250000214D7035286800F44070F8B1A18901F4BC
:10251000407181421AD0286820F440701C49C1F8EB
:1025200000800F6028602868C0070FD0FFF7AEFE5C
:10253000064641F2883706E0FFF7A8FE801BB84246
:1025400001D903209FE728688007F5D5E0680E4988
:10255000C0F301220831032A0BD0086820F4F810D8
:1025600008602868A189C1F30B0108432860002096
:1025700089E70A68074B22F4F812184002430A6000
:10258000EFE70000000047420038024000700040C2
:10259000400E4742FFFCFF0F2DE9F04704460D4671
:1025A000002C13D0DFF82891D9F80000EFB200F02A
:1025B0000700A8420CD289F80070D9F8000000F09A
:1025C0000700A84204D00120BDE8F0870120FBE706
:1025D0002068404E810712D5400703D5306840F48B
:1025E000E05030602078000703D5306840F4604048
:1025F00030603068A16820F0F00008433060207837
:10260000C00731D0334960680839012808D0022852
:102610000BD0032809D0096889070BD40120D3E720
:102620000968890306D40120CEE70968890101D42D
:102630000120C9E7316821F0030101433160FFF750
:1026400025FE804641F2883A07E0FFF71FFEA0EB27
:102650000800504501D90320B6E73068616800F0F2
:102660000C00B0EB810FF0D1D9F8000000F00700AA
:10267000A84209D989F80070D9F8000000F00700D5
:10268000A84201D001209FE72078400705D5306897
:10269000E16820F4E050084330602078000706D558
:1026A0003068216920F4604040EAC100306000F0E9
:1026B0005DF83168084AC1F30311515CC84007490D
:1026C000086007480068FFF709FE00207CE700006B
:1026D000003C024008380240800301083C00002012
:1026E000340000200F2202600B4A136803F003033A
:1026F0004360136803F0F0038360136803F4E0534E
:10270000C360126802F46042D208026103480068A4
:1027100000F007000860704708380240003C0240A3
:1027200001480068704700003C00002000B5FFF73A
:10273000F7FF04490968044AC1F38221515CC8408B
:1027400000BD0000083802409003010800B5FFF703
:10275000E7FF04490968044AC1F34231515CC840AB
:1027600000BD0000083802409003010810B517486A
:10277000006810F00C01164816D0164B042912D030
:10278000082911D1114C241F216801F03F02216852
:1027900049020AD52068C0F38810A0FB030100237A
:1027A000FDF7E3FD09E0184610BD21680023C1F3E1
:1027B0008811A1FB0001FDF7D8FD2168C1F301419B
:1027C000491C4900B0FBF1F010BD00000838024080
:1027D0000024F400001BB7002DE9F84F0446002C3C
:1027E00013D02078DFF8A083C007A8F1040556D0E5
:1027F00008F104000168C1F3810101290CD00068CF
:10280000C0F38100022803D00DE00120BDE8F88F5D
:10281000D8F80000400206D5286880033FD56068DC
:1028200070BB0120F2E76068B0F5803F10D0B0F5D2
:10283000A02F12D0286820F480302860286820F467
:10284000802028606068E0B1FFF720FD064614E0B4
:10285000286840F480302860F4E7286840F480203D
:102860002860286840F480302860EBE7FFF70EFD11
:10287000801B642801D90320C8E728688003F5D5A8
:102880000DE0FFF703FD064606E0FFF7FFFC801BA7
:10289000642801D90320B9E728688003F5D420789B
:1028A000BA4F80074FF0000948D5B748001D0168AE
:1028B00011F00C0F08D00068C0F38100022813D17A
:1028C000D8F8000040020FD42868800704D5E068DB
:1028D000012801D0012099E72868216920F0F8003B
:1028E00040EAC100286029E0E068B8B10120386002
:1028F000FFF7CCFC064606E0FFF7C8FC801B022869
:1029000001D9032082E728688007F5D52868216966
:1029100020F0F80040EAC10028600FE0C7F80090FE
:10292000FFF7B4FC064606E0FFF7B0FC801B022868
:1029300001D903206AE728688007F5D420780007CA
:1029400029D5DFF844A2924861690AF1700A89B179
:1029500001210160FFF79AFC064606E0FFF796FCAE
:10296000801B022801D9032050E7DAF80000800715
:10297000F4D510E0C0F80090FFF788FC064606E0AA
:10298000FFF784FC801B022801D903203EE7DAF818
:1029900000008007F4D42078400778D54FF0000A73
:1029A00079483C300068C0000BD477483C3001685F
:1029B00041F080510160006800F0805000904FF0BD
:1029C000010ADFF8D0B1DBF80000C00514D4DBF851
:1029D000000040F48070CBF80000FFF757FC06467B
:1029E00006E0FFF753FC801B022801D903200DE706
:1029F000DBF80000C005F4D5634EA0686C360128F2
:102A00000FD0052812D0306820F001003060306807
:102A100020F004003060A068F8B1FFF737FC83466F
:102A200017E0306840F001003060F4E7306840F0B3
:102A300004003060306840F001003060EBE7FFF7E1
:102A400025FCA0EB0B0141F28830814201D9032023
:102A5000DCE630688007F2D510E0FFF717FC83460C
:102A600009E0FFF713FCA0EB0B0141F28830814233
:102A700001D90320CAE630688007F2D4BAF1010F09
:102A800005D141483C30016821F080510160A069C6
:102A9000C0B33D49091D09684FF0FF36C1F38101FC
:102AA000022946D0022805D0C7F86090FFF7EEFB58
:102AB00004463AE0C7F86090FFF7E8FB814607E07C
:102AC000FFF7E4FBA0EB0900022801D903209DE6F3
:102AD00028688001F4D4D4E907010843616AA26A36
:102AE000890106EB520241EA0241084394F82C1096
:102AF00040EA0160C8F8000001203866FFF7C6FB15
:102B0000044607E03DE0FFF7C1FB001B022801D9A6
:102B100003207BE628688001F5D532E0FFF7B6FB9D
:102B2000001B022801D9032070E628688001F5D433
:102B300027E0012823D0D8F80000E26900F48001E2
:102B400091421AD1226A00F03F01914215D147F615
:102B5000C071626A0140B1EB821F0ED1A26A00F41B
:102B6000403106EB5202B1EB024F06D194F82C1023
:102B700000F07060B0EB016F03D0012046E6012049
:102B800044E6002042E600000438024000004742CC
:102B9000800E47420070004010B50446002C02D061
:102BA000607F10B106E0012010BD00202077204694
:102BB00000F042F8022060772068C168C943C90666
:102BC00031D5CA214162216853204862204601F074
:102BD00059FEC8B920688168164A11408160206892
:102BE000816862681143D4E904231A431143816068
:102BF0002168E068086120680169228941EA024190
:102C00000161204601F061FE48B921680A6C22F496
:102C100080220A6421680A6CA3691A430A64226844
:102C2000FF21516200E000200028BDD10121617721
:102C300010BD0000BFFF8FFF1FB500210091019163
:102C4000029103910068084988420CD1022000904B
:102C5000064803906846FFF7FBFB08B1FEF7FFFA52
:102C60000349012008601FBD0028004000031E002A
:102C70003C0E474270B505460A482968C860FFF710
:102C800005FB04464FF47A7606E0FFF7FFFA001BD7
:102C9000B04201D9032070BD2868C0688006F4D511
:102CA000002070BD5F7F010070B50446002C09D084
:102CB000606A002540B125616561A56294F8510004
:102CC00040B10CE0012070BD6068B0F5827FF4D0A7
:102CD000E561F2E784F85050204600F045F8022004
:102CE00084F851002068016821F040010160A0884B
:102CF000218900F4827001F404410843A18901F4A0
:102D000000610843217C01F002010843217D01F0AC
:102D100001010843218B01F400710843217F01F078
:102D20003801084394F8201001F080010843218DF8
:102D300001F40051084321680860A069042101EAF8
:102D4000104094F8241001F01001084321684860F5
:102D50002068C16921F40061C1616565012084F8C2
:102D60005100002070BD00002DE9F04387B00546FA
:102D7000142102A8FDF730FC3949286888426CD13B
:102D800000263848016841F480510160006800F471
:102D90008050019033481438016841F0020101600D
:102DA000016801F002010191016841F00101016037
:102DB000006800F001000190182002904FF0020816
:102DC000CDF80C804FF00109CDF810900324059444
:102DD0000527069702A92448FFF762F98020029090
:102DE000CDF80C80CDF810900594069702A91F48E5
:102DF000FFF756F91F4C1E4820604FF0C068C4F81A
:102E00000480A660E660071527616661A661E66139
:102E10004FF44030206266622046FFF77DF808B12B
:102E2000FEF71DFAEC64A5631148124C18306034AB
:102E30002060C4F804804020A060E66027616661DD
:102E4000A661E661C002206266622046FFF764F870
:102E500008B1FEF704FAAC64A56307B0BDE8F083DF
:102E600000300140443802400004024000000240AB
:102E700040640240680500202DE9FF4F81B0044600
:102E80000E9E93461F460125FFF700FA804694F8F0
:102E90005100616801280AD0B1F5827F03D1A16891
:102EA00009B9042803D0022005B0BDE8F08F0298CC
:102EB000A0B3BBF1000F32D0380030D094F85000EE
:102EC00001282ED04FF0010A84F850A094F8510048
:102ED000042802D0052084F851004FF00009C4F8FE
:102EE0005490C4F838B0E787A78702982063E78634
:102EF000A786C4F84090C4F8449020680168490649
:102F000003D4016841F040010160E068B0F5006F52
:102F100009D06068F0B3012F4DD082E0FFE70120B7
:102F2000C2E70220C0E7606808B1012F3CD1206BE6
:102F300021680088C860206B801C2063E08E401EE2
:102F4000E08631E02068816889070DD5E18E59B1AE
:102F5000012D09D1216B0988C160206B801C206381
:102F6000E08E401EE086002520688168C9070BD0EE
:102F7000E18F49B1C068A16B0880A06B801CA06381
:102F8000E08F401EE0870125FFF780F9A0EB0800E5
:102F9000B04200E00FE007D3701C05D084F851A0C8
:102FA00084F8509003207FE7E08E0028CAD1E08F9C
:102FB0000028C7D13BE0206B216800780873206BA4
:102FC000401C2063E08E401EE0862AE02068816875
:102FD00089070DD5E18E59B1012D09D1216B0978F1
:102FE0000173206B401C2063E08E401EE0860025AC
:102FF00020688168C9070BD0E18F49B1C068A16B17
:103000000870A06B401CA063E08F401EE087012584
:10301000FFF73CF9A0EB0800B04201D3701C12D1BD
:103020008EB1E08E0028D1D1E08F0028CED142466B
:103030003146204603F064F958B12020606584F8D9
:103040005090012030E784F851A084F8509003207C
:103050002AE7A06818B92068C1688068009084F8E1
:1030600051A084F85090606D08B101201CE7002049
:103070001AE77047704710B590F83C20012A22D01B
:10308000012280F83C20CA6800238C6822F4407238
:1030900022434C6822F4806222430C6822F40062CE
:1030A00022430C6922F4805222434C6922F40052DC
:1030B0002243C96922F480420A4301684A6480F8C5
:1030C0003C30002010BD022010BD000070B590F80B
:1030D0003C20012A31D0012680F83C60022280F891
:1030E0003D2002685468936824F070050C682C43F6
:1030F0005460134C0268A24214D0B2F1804F11D038
:10310000104CA2420ED0104CA2420BD00F4CA24247
:1031100008D00F4CA24205D00E4CA24202D00E4C59
:10312000A24204D123F080034968194391603C30E6
:10313000467000210170002070BD022070BD0000AB
:10314000000001400004004000080040000C004066
:1031500000040140004001400018004010B5044642
:10316000002C03D094F83D0010B107E0012010BD01
:10317000002084F83C00204600F016F8022084F875
:103180003D00211D206803F01BFA01203D346072D0
:103190006070A070E07020716071A071E0712072A9
:1031A0002070002010BD000008B50068194A1A49B7
:1031B000904208D1086840F001000860086800F0FB
:1031C0000100009008BD154A90420AD11248001F24
:1031D000016841F008010160006800F008000090FB
:1031E00008BD0F4A904208D1086840F0020008600C
:1031F000086800F00200009008BD0A4A9042FBD126
:10320000086840F400300860086800F4003000905E
:1032100008BD00000000014044380240000C00409E
:10322000000401400044014090F83D10012901D004
:1032300001207047022180F83D100168CA6842F001
:103240000102CA6000681449884214D0B0F1804F6E
:1032500011D0124988420ED0114988420BD0114931
:10326000884208D01049884205D01049884202D0CF
:103270000F49884209D1816801F00701062908D069
:10328000016841F00101016003E0016841F00101C2
:103290000160002070470000000001400004004071
:1032A00000080040000C00400004014000400140C4
:1032B0000018004070B50446002594F83C00012831
:1032C00017D0012684F83C60022084F83D00206875
:1032D000826822F0770222F47F42826008685028D8
:1032E00038D00DDC202853D005DC90B3102811D144
:1032F0004EE0022070BD30284AD040280AD13DE07F
:10330000602831D070280CD0B0F5805F03D0B0F5C4
:10331000005F12D001253C346670002020702846E2
:1033200070BDCB68D1E90121206803F0C4F92068A1
:10333000816841F077018160EDE7CB68D1E9012137
:10334000206803F0B8F92068816841F48041816009
:10335000E1E71DE0CA684968206803F08FFA502150
:10336000206803F0B2F9D6E7CA684968206803F01C
:1033700096FA6021206803F0A8F9CCE7CA6849688A
:10338000206803F07BFA4021206803F09EF9C2E731
:1033900022680146104603F098F9BCE770472DE912
:1033A000F04104462068C56806694FF00007B10780
:1033B00014D5A90712D5F91E0161012020772068D4
:1033C0008069800703D02046FFF7E8FF05E020462C
:1033D00000F042F9204600F0E5F92777700717D58D
:1033E000680715D521686FF0040008610220207776
:1033F0002068806910F4407F03D02046FFF7CEFF9D
:1034000005E0204600F028F9204600F0CBF92777A8
:10341000300716D5280714D521686FF00800086119
:10342000042020772068C069800703D02046FFF77A
:10343000B5FF05E0204600F00FF9204600F0B2F994
:103440002777F00617D5E80615D521686FF010002C
:103450000861082020772068C06910F4407F03D0FD
:103460002046FFF79BFF05E0204600F0F5F82046D8
:1034700000F098F92777F00708D0E80706D0216810
:103480006FF001000861204600F0FCF9300608D515
:10349000280606D521686FF0800008612046FFF7F6
:1034A000E8FD700608D5680606D521686FF0400073
:1034B0000861204600F0F0F9B0060AD5A80608D544
:1034C00021686FF0200008612046BDE8F041FFF759
:1034D000D1BDBDE8F08100002DE9F04186B0044681
:1034E000142101A8FDF778F84E4A206800254E49BE
:1034F00002240126904227D1086840F001000860AC
:10350000086800F001000090086840F010000860B2
:10351000086800F0100000904FF4406001900294A1
:1035200003950495059601A94048FEF7B9FDA00250
:103530000190029403950495059601A93C48FEF775
:10354000AFFD06B0BDE8F0813A4A904212D108685A
:1035500040F008000860086800F0080000901014AF
:103560000190029403950495059401A93248FEF751
:1035700097FDE6E7314A904213D1086840F0800099
:103580000860086800F0800000904FF4E05001905F
:10359000029403960495059401A92948FEF780FD3D
:1035A000CFE7284A40274FF00308904224D108680B
:1035B00040F480700860086800F48070009008682B
:1035C00040F004000860086800F0040000900197D3
:1035D000029403950495CDF8148001A91A48FEF7CA
:1035E0005FFD0197029403950495CDF8148001A91D
:1035F0001648FEF755FDA4E7154A9042A1D1086888
:1036000040F020000860086800F02000009001975A
:10361000029403960494CDF8148001A90D48FEF796
:103620003FFD8EE7000001403038024000000240BC
:103630000010024000080040000C0240000C004056
:10364000001C02400004014000200240000802402B
:103650000044014000140240704770B504460D4616
:10366000002694F83C0001280FD0012084F83C008B
:103670006AB1042A1FD0082A32D00C2A44D001266D
:10368000002084F83C00304670BD022070BD294601
:10369000206803F023F82068816941F00801816106
:1036A0002068816921F004018161206881692A69AB
:1036B00011438161E4E72946206803F043F820685C
:1036C000816941F4006181612068816921F4806130
:1036D0008161206881692A6941EA02218161CFE71D
:1036E0002946206803F068F82068C16941F00801A4
:1036F000C1612068C16921F00401C1612068C1690C
:103700002A691143C161BBE72946206803F08CF8A0
:103710002068C16941F40061C1612068C16921F478
:103720008061C1612068C1692A6941EA0221C161E1
:10373000A6E710B50446002C03D094F83D0010B164
:1037400007E0012010BD002084F83C00204600F076
:1037500015F8022084F83D00211D206802F030FF9A
:1037600001203D3460726070A070E0702071607163
:10377000A071E07120722070002010BD08B50068B3
:103780000649884208D10648016841F004010160F9
:10379000006800F00400009008BD00000008004030
:1037A000403802407047000010B50446002909D097
:1037B00004290AD008290BD094F8410001280AD026
:1037C000012010BD94F83E00F8E794F83F00F5E7BB
:1037D00094F84000F2E70220A9B3042937D0082961
:1037E00038D084F841000122206802F057FF1E49BA
:1037F00020681E4A884201D0904203D1436C43F4B2
:10380000004343642068884213D0B0F1804F10D049
:10381000174988420DD0174988420AD01649884274
:1038200007D0904205D01549884202D014498842F9
:1038300013D1816801F00701062912D0016841F017
:10384000010101600DE0FFE784F83E00CBE784F85A
:103850003F00C8E784F84000C5E7016841F0010176
:103860000160002010BD0000000001400004014084
:103870000004004000080040000C004000400140EF
:103880000018004000680349884201D1FEF704BDDA
:103890007047000000040040704770477047000008
:1038A000F8B5044622681068D168536900F00F0625
:1038B000002E08D1850606D58D0604D52046BDE824
:1038C000F84003F045B80025002E66D003F001064D
:1038D00001F49077374360D0C20705D0CA0503D5FD
:1038E000626C42F001026264420705D5DA0703D038
:1038F000626C42F002026264820705D5DA0703D0E7
:10390000626C42F004026264020707D501F02002F3
:10391000324303D0626C42F008026264626C002A97
:1039200031D0800604D5880602D5204603F010F871
:1039300020684069C0F38010616C090700D438B377
:10394000204602F0D1FF2068406940061CD520685F
:10395000143050E8001F21F0400140E80012002A16
:10396000F5D1E06B60B159490165E06BFEF7D9F91B
:10397000002808D0E06B016D01B0BDE8F0400847B9
:103980002046FFF78BFFF8BD2046FFF787FFF8BD05
:103990002046FFF783FF6564F8BD236B012B7DD1C3
:1039A000C3067BD5CB067FD5106850680090506960
:1039B0004FF0200340064FF0020644D5E16B086843
:1039C000406880B20028E7D0A28D8242E4D9E08529
:1039D000C869B0F5807F2DD020680C3050E8001FFA
:1039E00021F4807140E80012002AF5D120681430DB
:1039F00050E8001F21F0010140E80012002AF5D133
:103A00002068143050E8001F21F0400140E8001207
:103A1000002AF5D184F84230256320680C3050E844
:103A2000001F21F0100140E80012002AF5D1E06BE0
:103A3000FEF730F96663A08DE18D401A81B2204611
:103A4000FFF72BFFF8BDA08DE18D401A81B2E08D0C
:103A50000028F7D00029F5D020680C3050E8002F5E
:103A600022F4907240E80027002FF5D1206814302E
:103A700050E8002F22F0010240E80027002FF5D186
:103A800084F84230256320680C3050E8002F22F083
:103A9000100240E80023002BF5D100E004E066634B
:103AA0002046FFF7FAFEF8BD020606D50A0604D541
:103AB0002046BDE8F84003F039B84006F3D5480683
:103AC000F1D52046BDE8F84002F035BFD9680008BE
:103AD00070B50446002C04D094F84100002510B1C4
:103AE00006E0012070BD84F84050204600F024F824
:103AF000242084F841002068C16821F40051C1608D
:103B0000204602F089FF2068016921F4904101619B
:103B10002068416921F02A0141612068C16841F4AF
:103B20000051C1606564202084F8410084F842009F
:103B30006563002070BD00002DE9F04786B00446A3
:103B4000142101A8FCF748FD7448734B2168734A9F
:103B50001438022500264FF003094FF0070A994256
:103B60003AD1116841F010011160116801F01001A3
:103B70000091016841F002010160016801F0020159
:103B80000091016841F001010160006800F001004E
:103B900000908020019002950396CDF81090CDF80A
:103BA00014A001A95E48FEF77BFA28020190029555
:103BB0000396CDF81090CDF814A001A95948FEF74E
:103BC0006FFA002205212520FEF7FEFB2520FEF7D7
:103BD000EDFB06B0BDE8F087534B4FF400381F15DE
:103BE00099423ED14D49091F0A6842F480220A6079
:103BF000096801F480210091016841F0040101602D
:103C0000006800F0040000904FF4406001900295BD
:103C10000396CDF81090CDF814A001A94348FEF703
:103C20003FFA444D4248286078046860AE60EE6018
:103C30002F616E61AE61C014E861C5F820806E62CC
:103C40002846FEF769F908B1FDF709FBE563AC63A7
:103C5000002205212720FEF7B7FB2720FEF7A6FB51
:103C6000B7E7354B9942B4D1116841F0200111609A
:103C7000116801F020010091016841F040010160EC
:103C8000006800F0400000904FF4844001900295DD
:103C90000396CDF810900820059001A92748FEF75B
:103CA000FFF9244D2648603528604FF02069C5F89B
:103CB0000490AE60EE602F616E61AE61EE61C5F89A
:103CC00020806E622846FEF727F908B1FDF7C7FA93
:103CD000E563AC631A48174D7830C0352860C5F8E5
:103CE00004904020A860EE602F616E61AE61EE61CD
:103CF000800228626E622846FEF70EF908B1FDF7D1
:103D0000AEFAA563AC63002205214720FEF75CFBF9
:103D10004720FEF74BFB5CE70010014044380240AF
:103D20000004024000000240004800400008024039
:103D3000286002406808002000140140001802407A
:103D40002864024070472DE9F84304460E461546A4
:103D50001F4694F84100202802D00220BDE8F883D5
:103D60007EB175B100206064212084F84100FEF727
:103D70008DFA8146A584E584A068B0F5805F02D005
:103D800003E00120EAE7206920B1354600264FF024
:103D9000200815E00025FAE74B4600228021204646
:103DA000009702F0F2FE18B184F841800320D5E7B5
:103DB000ADB1216815F8010B4860E08C401EE0842D
:103DC000E08C0028E8D14B46002240212046009795
:103DD00002F0DBFE50B184F841800320BEE736F8E4
:103DE000020B2168C0F308004860E6E784F84180D0
:103DF0000020B3E77047FEE72DED028B86B0072069
:103E000009F01EFA02E0642009F01AFAFCF70CFD32
:103E10000028F8D106F0BCFEDFED661A9FED661AA9
:103E2000DFED660A9FED660A6649674807F062F9AA
:103E3000002009F03FFA0BF029FA624F483F786200
:103E400062491020C86107F134010822A1F108007D
:103E500002F0D0F94FF0010887F803805A4C4FF078
:103E6000FF3A4034A4F19805A4F18C06A4F180092E
:103E7000514601200AF02AFE0128F9D138780007BE
:103E800009D5387820F0080038704F494D48543132
:103E90001338FCF799FC787840070AD5787820F039
:103EA00004007870484A211D6032A2F16A00FCF7D4
:103EB00021FCB87840070DD5B87820F00400B87020
:103EC0004149404850311E38FCF7A2FD94ED040AE8
:103ED00009F01EF83E4894ED050AD0ED000A30EED8
:103EE000600A85ED000A3B4894ED060AD0ED000A11
:103EF00030EE600A85ED010A374894ED070AD0EDEF
:103F0000000A30EE600A85ED020A9FED348A2E48E1
:103F100094ED010AF0EE480A4C3808F0CFFC94ED1D
:103F2000020AF0EE480A301D08F0C8FC264894ED5D
:103F3000030AF0EE480A443808F0C0FC0520411E90
:103F400009EB810209EB800092ED000A80ED000A86
:103F5000C8B20028F3D1D6ED022AC9ED002A1A48CA
:103F600096ED012AD6ED001A95ED021AD5ED010A5B
:103F700095ED000A283806F009FF1348283890ED1F
:103F8000010A8DED020A90ED020A8DED030A90ED13
:103F9000030A8DED040A90ED000A8DED050A00205C
:103FA000CDE90080084903460222183902A809F029
:103FB00031FC5DE700007A4400007AC400A08C4523
:103FC00000A08CC550010020645E00201005002078
:103FD000B4000020B8000020BC0000208FC2753D56
:103FE000C8200AF03FFF06F09DFE0A4C0A4D2078DB
:103FF000012809D02878012809D006F04FFE06F0E4
:104000006FFE06F0A1FEF2E706F09EFEEFE706F077
:1040100067FEECE7F1010020F001002010B50F4829
:104020000D4901600321416000218160C1604FF4AE
:10403000102202614FF400124261017641768176CE
:10404000C17601774177FDF733FC002803D0BDE846
:104050001040FDF704B910BD00640040A00400202A
:1040600010B510480E4901600321416000218160B4
:10407000C1604FF4102202614FF4001242610176D8
:10408000417681760122C27601774177FDF710FCF7
:10409000002803D0BDE81040FDF7E1B810BD0000D6
:1040A00000680040C804002008B51D48016841F4BC
:1040B00080010160016801F480010091016841F410
:1040C00000110160006800F400100090002205213A
:1040D0000C20FEF779F90C20FEF768F90022052183
:1040E0003920FEF771F93920FEF760F90022052129
:1040F0003A20FEF769F93A20FEF758F90022052127
:104100003B20FEF761F93B20FEF750F90022052124
:104110004520FEF759F9BDE808404520FEF746B9AD
:104120003038024010B5CEB01C223C4947A8FCF7FD
:10413000F7F9002147A809F090F8394C20601C22BB
:1041400036491C3140A8FCF7EBF9002140A809F0E2
:1041500084F860601C223149383139A8FCF7E0F955
:10416000002139A809F079F8A0601C222B495431AC
:1041700032A8FCF7D5F9002132A809F06EF8E0600A
:104180001C22264970312BA8FCF7CAF900212BA864
:1041900009F063F820611C2220498C3124A8FCF727
:1041A000BFF9002124A809F058F860611C221B49BE
:1041B000A8311DA8FCF7B4F900211DA809F04DF89D
:1041C000A0611C221549C43116A8FCF7A9F90021E9
:1041D00016A809F042F8E0611C221049E0310FA84E
:1041E000FCF79EF900210FA809F037F820621C2285
:1041F0000A49FC3108A8FCF793F9002108A809F046
:104200002CF860621C22074901A8FCF789F90021FB
:1042100001A809F022F8A0624EB010BD44020108C6
:10422000000000205C0301082DE9F04186B0142154
:1042300001A8FCF7D1F900254E48016841F00201C0
:104240000160016801F002010091016841F0400144
:104250000160016801F040010091016841F0010135
:104260000160016801F001010091016841F008015D
:104270000160016801F008010091016841F004014A
:104280000160016801F004010091016841F480714E
:104290000160016801F480710091016841F08001C2
:1042A0000160016801F080010091016841F0200186
:1042B0000160016801F020010091016841F01001E6
:1042C0000160006800F0100000902B4E01221021C8
:1042D0003046FDF7D4FFDFF8A480012211464046A6
:1042E000FDF7CDFF102001900124029403940227D2
:1042F000049701A93046FDF7D3FE302001904FF41A
:1043000088160296039401A91D48FDF7C9FE019481
:104310000296039501A91B48FDF7C2FE60020190B9
:104320000295039501A91848FDF7BAFE019402947D
:104330000394049701A94046FDF7B2FE002205212F
:104340000620FEF741F80620FEF730F8002205218E
:104350000A20FEF739F80A20FEF728F80022052186
:104360001720FEF731F81720FEF720F806B0BDE859
:10437000F08100003038024000000240000402409A
:1043800000080240001802400010024010B50C481E
:104390000A490160002141607C22826040F67F4230
:1043A000C260016141618161FEF7F6FB002803D024
:1043B000BDE81040FCF753BF10BD000000280040CE
:1043C000F004002010B510480E4901604FF48271CE
:1043D000416000218160C1600222026101224261CC
:1043E000520282613822C2610162416281620A2105
:1043F000C162FEF759FC002803D0BDE81040FCF76D
:104400002EBF10BD003001401005002010B588B04F
:104410001C2101A8FCF7E0F81448134901600024AE
:104420004460846041F28731C16004618461FEF7B9
:1044300095FE08B1FCF713FF0C48FFF77AF908B1B5
:10444000FCF70DFF60200190029403940594002274
:1044500001A90648FFF701F908B1FCF700FF03487E
:10446000FFF73AF808B010BD0044014048070020AB
:1044700010B596B0002412941394149415941094CB
:1044800011941C2109A8FCF7A7F8202101A8FCF72A
:10449000A3F8324830490160A7214160846044F6A6
:1044A0001F61C1600461446180218161FEF756FE95
:1044B00008B1FCF7D4FE4FF48050129012A927489F
:1044C000FEF7F8FE08B1FCF7CAFE2448FFF731F901
:1044D00008B1FCF7C4FE1094119410A91F48FEF710
:1044E000F5FD08B1FCF7BBFE602009904FF47A702F
:1044F0000A900B940C940D940E940F94042209A925
:104500001648FFF7AAF808B1FCF7A9FE082209A986
:104510001248FFF7A2F808B1FCF7A1FE0C2209A986
:104520000E48FFF79AF808B1FCF799FE019402943F
:104530000394049405944FF400500690089401A944
:104540000648FEF798FD08B1FCF789FE0348FEF720
:10455000C3FF16B010BD0000000001402806002077
:1045600010B58AB00024089409941C2101A8FCF716
:1045700033F8164814490160A721416084604FF662
:10458000FF71C16004618461FFF7D3F808B1FCF7E3
:1045900066FE0894099408A90C48FEF797FD08B137
:1045A000FCF75DFE602001900294039405940822BC
:1045B00001A90648FFF751F808B1FCF750FE03487F
:1045C000FEF78AFF0AB010BD000800407006002008
:1045D00010B58EB000240A940B940C940D9408949A
:1045E00009941C2101A8FBF7F7FF26482449016024
:1045F0004460846040F2E731C16004618461FEF789
:10460000ADFD08B1FCF72BFE4FF480500A900AA9CB
:104610001C48FEF74FFE08B1FCF721FE1948FFF7D2
:1046200088F808B1FCF71BFE0894099408A91548FE
:10463000FEF74CFD08B1FCF712FE602001900294D9
:1046400003940594002201A90E48FFF706F808B16B
:10465000FCF705FE042201A90A48FEF7FEFF08B197
:10466000FCF7FDFD082201A90648FEF7F6FF08B198
:10467000FCF7F5FD0348FEF72FFF0EB010BD00005C
:10468000000C0040B806002010B596B0002412942B
:10469000139414941594109411941C2109A8FBF7F9
:1046A0009BFF202101A8FBF797FF2D482B490160B4
:1046B000A7214160846044F61F61C16004614461C8
:1046C0008461FEF74BFD08B1FCF7C9FD4FF4805043
:1046D000129012A92248FEF7EDFD08B1FCF7BFFDCC
:1046E0001F48FFF726F808B1FCF7B9FD10941194A4
:1046F00010A91B48FEF7EAFC08B1FCF7B0FD6020EA
:1047000009904FF47A700A900B940C940D940E94C7
:104710000F94002209A91248FEF79FFF08B1FCF789
:104720009EFD042209A90E48FEF797FF08B1FCF789
:1047300096FD019402940394049405944FF4005060
:104740000690089401A90648FEF795FC08B1FCF70D
:1047500086FD0348FEF7C0FE16B010BD0004014000
:104760000007002010B50C480A4901604FF4E13100
:10477000416000218160C16001610C224261816160
:10478000C161FFF7A5F9002803D0BDE81040FCF790
:1047900066BD10BD001001409007002010B50D4807
:1047A0000B4901600C49416000218160C1604FF4F8
:1047B000806202610C2242618161C161FFF788F968
:1047C000002803D0BDE81040FCF749BD10BD000033
:1047D00000480040D8070020A086010010B50C4812
:1047E0000A4901604FF4E131416000218160C160FC
:1047F00001610C2242618161C161FFF769F9002802
:1048000003D0BDE81040FCF72ABD10BD00140140E4
:1048100020080020FEE7FEE730B5174C23685D69ED
:1048200045F040055D612368DC6844F01004DC60FD
:10483000124C23681D6825F001051D6003E01D680A
:1048400025F001051D6023681D68ED07F7D1256877
:104850000B4BAB602368D860206801612068426020
:104860002068016841F4802101602068016841F0FE
:104870000101016030BD0000D80700206808002059
:10488000044800402DE9F041044600252068C16835
:10489000490617D4C16841F08001C160FDF7F6FCFC
:1048A00006464FF47A78042706E0FDF7EFFC801BFC
:1048B000404501D9677701252068C068400601D4CA
:1048C000012DF2D12846BDE8F08170B504460025DF
:1048D0002068C16821F08001C1602068806880067E
:1048E00006D42046FEF7C6F910B1042060770125F2
:1048F000284670BD08F062FB26494FF48062A1F1A2
:10490000180004F0A2FA24494FF40072A1F50070D7
:104910000AF010F9002400254FF496700AF0A2FA6C
:104920001E4E1F4F09F0A8FA0A200AF09BFA08F061
:10493000FBF9641CA4B20A2C00D900246D1CADB292
:10494000642D00D30025F88AC1050AD53178727824
:104950001140B278114204D1012030707070B070F3
:10496000E0E7392D04D1C00502D509F0C9FDD9E72A
:10497000072C04D0012CD5D109F002FCD2E709485C
:1049800090ED020ABDEEC00A10EE100A09F07EFB9F
:10499000C8E700006C610020F5670020640100207A
:1049A000C47900207C7900202DE9F74F82B0F749C7
:1049B0000868026822F001020260F54A1068036884
:1049C00023F00103036003E0016821F001010160AD
:1049D000EE4800680168C907F6D103E0016821F0DC
:1049E00001010160EA4800680168C907F6D1E94899
:1049F000E94AEA4BC06C0190E74CE84DE64EE74FC0
:104A00000068DFF894B3DFF890C3E449483A6033B4
:104A100018341835303E78374FF400680CF1300CFC
:104A200058454CD9884201D1202041E0904201D123
:104A300020203DE0984201D1202039E0A04201D160
:104A4000202035E0A84201D1404631E0B04201D1FA
:104A500040462DE0B84201D1404629E0604501D1F1
:104A6000404625E0DFF8349309F13009484502D18A
:104A70004FF400101CE0DFF82093A9F11809484515
:104A800002D14FF4001013E0DFF8109309F1900900
:104A9000484502D14FF400100AE0DFF8FC9209F11A
:104AA0004809484502D14FF4001001E04FF0006082
:104AB000DFF8E492A9F14C09C9F80000F1E0DFF851
:104AC000DC9209F1A80948454CD9884201D120203F
:104AD00041E0904201D120203DE0984201D12020C8
:104AE00039E0A04201D1202035E0A84201D1404662
:104AF00031E0B04201D140462DE0B84201D14046FC
:104B000029E0604501D1404625E0DFF8909209F1A7
:104B10003009484502D14FF400101CE0DFF87892CC
:104B2000A9F11809484502D14FF4001013E0DFF84D
:104B30006C9209F19009484502D14FF400100AE047
:104B4000DFF8549209F14809484502D14FF40010AA
:104B500001E04FF00060DFF84092A9F15009C9F878
:104B600000009EE0DFF8349209F1480948454CD92D
:104B7000884201D1202041E0904201D120203DE037
:104B8000984201D1202039E0A04201D1202035E017
:104B9000A84201D1404631E0B04201D140462DE06B
:104BA000B84201D1404629E0604501D1404625E0A8
:104BB000DFF8E89109F13009484502D14FF40010BF
:104BC0001CE0DFF8D491A9F11809484502D14FF44F
:104BD000001013E0DFF8C49109F19009484502D1B3
:104BE0004FF400100AE0DFF8B09109F14809484598
:104BF00002D14FF4001001E04FF00060DFF89C910B
:104C0000A9F11009C9F80C004BE0884201D120201D
:104C100041E0904201D120203DE0984201D1202086
:104C200039E0A04201D1202035E0A84201D1404620
:104C300031E0B04201D140462DE0B84201D14046BA
:104C400029E0604501D1404625E0DFF8509109F1A7
:104C50003009484502D14FF400101CE0DFF83891CC
:104C6000A9F11809484502D14FF4001013E0DFF80C
:104C70002C9109F19009484502D14FF400100AE047
:104C8000DFF8149109F14809484502D14FF40010AA
:104C900001E04FF00060DFF80491A9F11009C9F8B4
:104CA000080001984FF48069006858454CD9884243
:104CB00001D1102041E0904201D110203DE0984206
:104CC00001D1102039E0A04201D1102035E0A842E6
:104CD00001D1484631E0B04201D148462DE0B8420A
:104CE00001D1484629E0604501D1484625E0DFF87A
:104CF000ACE00EF1300E704502D14FF480101CE094
:104D0000DFF894E0AEF1180E704502D14FF4801038
:104D100013E0DFF888E00EF1900E704502D14FF4F9
:104D200080100AE0DFF870E00EF1480E704502D105
:104D30004FF4801001E04FF08060DFF85CE0AEF1EE
:104D40004C0ECEF80000EFE0DFF850E00EF1A80EB8
:104D5000704552D9884201D1102047E0904201D1DC
:104D6000102043E0984201D110203FE0A04201D141
:104D700010203BE0A84201D1484637E0B04201D1C3
:104D8000484633E0B8420BD148462FE06805002082
:104D9000C805002010050020586402401060024041
:104DA000604501D1484621E0DFF8A4EC704502D10E
:104DB0004FF480101AE0DFF89CEC704502D14FF4FC
:104DC000801013E0DFF888EC0EF1600E704502D120
:104DD0004FF480100AE0DFF87CEC0EF1600E7045B5
:104DE00002D14FF4801001E04FF08060DFF864ECF6
:104DF000AEF1380ECEF8000096E0DFF854EC0EF17C
:104E0000180E704548D9884201D110203DE09042EB
:104E100001D1102039E0984201D1102035E0A042A4
:104E200001D1102031E0A84201D148462DE0B04226
:104E300001D1484629E0B84201D1484625E0604505
:104E400001D1484621E0DFF808EC704502D14FF46B
:104E500080101AE0DFF8FCEB704502D14FF48010AF
:104E600013E0DFF8ECEB0EF1600E704502D14FF469
:104E700080100AE0DFF8DCEB0EF1600E704502D125
:104E80004FF4801001E04FF08060DFF8C4EBAEF12A
:104E9000400ECEF80C0047E0884201D110203DE0E2
:104EA000904201D1102039E0984201D1102035E024
:104EB000A04201D1102031E0A84201D148462DE0A6
:104EC000B04201D1484629E0B84201D1484625E028
:104ED000604501D1484621E0DFF874EB704502D10E
:104EE0004FF480101AE0DFF86CEB704502D14FF4FC
:104EF000801013E0DFF858EB0EF1600E704502D120
:104F00004FF480100AE0DFF84CEB0EF1600E7045B4
:104F100002D14FF4801001E04FF08060DFF830EBF9
:104F2000AEF1400ECEF8080001984FF4007A006808
:104F3000584548D9884201D108203DE0904201D12E
:104F4000082039E0984201D1082035E0A04201D183
:104F5000082031E0A84201D150462DE0B04201D1F5
:104F6000504629E0B84201D1504625E0604501D1C4
:104F7000504621E0DFF8D8EA704502D14FF4002016
:104F80001AE0DFF8D0EA704502D14FF4002013E0B8
:104F9000DFF8BCEA0EF1600E704502D14FF400203C
:104FA0000AE0DFF8B0EA0EF1600E704502D14FF46E
:104FB000002001E04FF00070DFF898EAAEF1340E07
:104FC000CEF80000E5E0DFF888EA0EF1780E7045D3
:104FD00048D9884201D108203DE0904201D1082003
:104FE00039E0984201D1082035E0A04201D10820E3
:104FF00031E0A84201D150462DE0B04201D15046E7
:1050000029E0B84201D1504625E0604501D1504623
:1050100021E0DFF83CEA704502D14FF400201AE0AD
:10502000DFF830EA704502D14FF4002013E0DFF8DA
:1050300020EA0EF1600E704502D14FF400200AE024
:10504000DFF810EA0EF1600E704502D14FF4002037
:1050500001E04FF00070DFF8FCE9AEF1380ECEF859
:10506000000096E0DFF8E8E90EF1180E704548D927
:10507000884201D108203DE0904201D1082039E06A
:10508000984201D1082035E0A04201D1082031E04A
:10509000A84201D150462DE0B04201D1504629E04E
:1050A000B84201D1504625E0604501D1504621E08B
:1050B000DFF89CE9704502D14FF400201AE0DFF8D8
:1050C00094E9704502D14FF4002013E0DFF880E945
:1050D0000EF1600E704502D14FF400200AE0DFF8B7
:1050E00074E90EF1600E704502D14FF4002001E02A
:1050F0004FF00070DFF858E9AEF1400ECEF80C002A
:1051000047E0884201D108203DE0904201D10820CB
:1051100039E0984201D1082035E0A04201D10820B1
:1051200031E0A84201D150462DE0B04201D15046B5
:1051300029E0B84201D1504625E0604501D15046F2
:1051400021E0DFF80CE9704502D14FF400201AE0AD
:10515000DFF800E9704502D14FF4002013E0DFF8DA
:10516000F0E80EF1600E704502D14FF400200AE025
:10517000DFF8E0E80EF1600E704502D14FF4002038
:1051800001E04FF00070DFF8C8E8AEF1400ECEF855
:1051900008000198DFF8BCE84FF4802B00680EF19E
:1051A000180E704548D9884201D104203DE0904254
:1051B00001D1042039E0984201D1042035E0A04219
:1051C00001D1042031E0A84202D14FF480702CE0DC
:1051D000B04202D14FF4807027E0B84202D14FF4C0
:1051E000807022E0604502D14FF480701DE0DFF84E
:1051F00060E8704501D1584617E0DFF858E870457F
:1052000001D1584611E0DFF848E80EF1600E704514
:1052100001D1584609E0DFF83CE80EF1600E704518
:1052200001D1584601E04FF08070DFF828E8AEF178
:10523000340ECEF80000E5E0DFF814E80EF1780E49
:10524000704548D9884201D104203DE0904201D107
:10525000042039E0984201D1042035E0A04201D178
:10526000042031E0A84202D14FF480702CE0B0421B
:1052700002D14FF4807027E0B84202D14FF4807021
:1052800022E0604502D14FF480701DE0DFF8C0E7F6
:10529000704501D1584617E0DFF8B8E7704501D1F5
:1052A000584611E0DFF8A8E70EF1600E704501D115
:1052B000584609E0DFF89CE70EF1600E704501D119
:1052C000584601E04FF08070DFF888E7AEF1380E05
:1052D000CEF8000096E0DFF878E70EF1180E704582
:1052E00048D9884201D104203DE0904201D10420F8
:1052F00039E0984201D1042035E0A04201D10420D8
:1053000031E0A84202D14FF480702CE0B04202D1CB
:105310004FF4807027E0B84202D14FF4807022E051
:10532000604502D14FF480701DE0DFF824E770453E
:1053300001D1584617E0DFF81CE7704501D1584607
:1053400011E0DFF80CE70EF1600E704501D1584610
:1053500009E0DFF800E70EF1600E704501D1584614
:1053600001E04FF08070DFF8E8E6AEF1400ECEF8D5
:105370000C0047E0884201D104203DE0904201D179
:10538000042039E0984201D1042035E0A04201D147
:10539000042031E0A84202D14FF480702CE0B042EA
:1053A00002D14FF4807027E0B84202D14FF48070F0
:1053B00022E0604502D14FF480701DE0DFF890E6F6
:1053C000704501D1584617E0DFF888E6704501D1F5
:1053D000584611E0DFF878E60EF1600E704501D115
:1053E000584609E0DFF86CE60EF1600E704501D119
:1053F000584601E04FF08070DFF854E6AEF1400E01
:10540000CEF808000198DFF84CE600680EF1180E9F
:10541000704548D9884201D101203DE0904201D138
:10542000012039E0984201D1012035E0A04201D1AC
:10543000012031E0A84201D140202DE0B04201D14D
:10544000402029E0B84201D1402025E0604501D14B
:10545000402021E0DFF8F8E5704502D14FF48030BC
:105460001AE0DFF8F0E5704502D14FF4803013E028
:10547000DFF8DCE50EF1600E704502D14FF48030AC
:105480000AE0DFF8D0E50EF1600E704502D14FF46E
:10549000803001E04FF48000DFF8B8E5AEF1340E63
:1054A000CEF80000E5E0DFF8A8E50EF1780E7045D3
:1054B00048D9884201D101203DE0904201D101202C
:1054C00039E0984201D1012035E0A04201D101200C
:1054D00031E0A84201D140202DE0B04201D140206E
:1054E00029E0B84201D1402025E0604501D14020AB
:1054F00021E0DFF85CE5704502D14FF480301AE01E
:10550000DFF850E5704502D14FF4803013E0DFF84A
:1055100040E50EF1600E704502D14FF480300AE094
:10552000DFF830E50EF1600E704502D14FF48030A7
:1055300001E04FF48000DFF81CE5AEF1380ECEF844
:10554000000096E0DFF808E50EF1180E704548D926
:10555000884201D101203DE0904201D1012039E093
:10556000984201D1012035E0A04201D1012031E073
:10557000A84201D140202DE0B04201D1402029E0D5
:10558000B84201D1402025E0604501D1402021E012
:10559000DFF8BCE4704502D14FF480301AE0DFF848
:1055A000B4E4704502D14FF4803013E0DFF8A0E49A
:1055B0000EF1600E704502D14FF480300AE0DFF842
:1055C00094E40EF1600E704502D14FF4803001E09A
:1055D0004FF48000DFF878E4AEF1400ECEF80C0016
:1055E00047E0884201D101203DE0904201D10120F5
:1055F00039E0984201D1012035E0A04201D10120DB
:1056000031E0A84201D140202DE0B04201D140203C
:1056100029E0B84201D1402025E0604501D1402079
:1056200021E0DFF82CE4704502D14FF480301AE01D
:10563000DFF820E4704502D14FF4803013E0DFF84A
:1056400010E40EF1600E704502D14FF480300AE094
:10565000DFF800E40EF1600E704502D14FF48030A7
:1056600001E04FF48000DFF8E8E3AEF1400ECEF841
:105670000800F948DFF8DCE3806C00900EF1180EAA
:105680000068704542D9884202D14FF0200838E0C6
:10569000904202D14FF0200833E0984202D14FF0FF
:1056A00020082EE0A04202D14FF0200829E0A842B5
:1056B00027D0B04225D0B84223D0604521D0DFF8B2
:1056C0009083404502D14FF400181AE0DFF884833C
:1056D000404502D14FF4001813E0DFF8748308F15D
:1056E0006008404502D14FF400180AE0DFF86483F7
:1056F00008F16008404502D14FF4001801E04FF076
:105700000068D4483438C0F80080D3E0DFF840E3C4
:105710000EF1780E704542D9884202D14FF0200830
:1057200038E0904202D14FF0200833E0984202D195
:105730004FF020082EE0A04202D14FF0200829E0CF
:10574000A84227D0B04225D0B84223D0604521D00E
:10575000DFF8FC82404502D14FF400181AE0DFF870
:10576000F482404502D14FF4001813E0DFF8E082E4
:1057700008F16008404502D14FF400180AE0DFF854
:10578000D48208F16008404502D14FF4001801E0CE
:105790004FF00068AF483838C0F800808AE0DFF882
:1057A000B0E20EF1180E704542D9884202D14FF096
:1057B000200838E0904202D14FF0200833E09842B0
:1057C00002D14FF020082EE0A04202D14FF0200875
:1057D00029E0A84227D0B04225D0B84223D0604566
:1057E00021D0DFF86C82404502D14FF400181AE056
:1057F000DFF86082404502D14FF4001813E0DFF873
:10580000508208F16008404502D14FF400180AE0C8
:10581000DFF8408208F16008404502D14FF40018DB
:1058200001E04FF000688A484038C0F80C8041E041
:10583000884202D14FF0200838E0904202D14FF068
:10584000200833E0984202D14FF020082EE0A04219
:1058500002D14FF0200829E0A84227D0B04225D03D
:10586000B84223D0604521D0DFF8E481404502D121
:105870004FF400181AE0DFF8DC81404502D14FF404
:10588000001813E0DFF8C88108F16008404502D134
:105890004FF400180AE0DFF8BC8108F160084045C9
:1058A00002D14FF4001801E04FF00068684840381A
:1058B000C0F808800098DFF89C81006808F118089B
:1058C000404542D9884202D14FF0100938E0904259
:1058D00002D14FF0100933E0984202D14FF0100985
:1058E0002EE0A04202D14FF0100929E0A84227D0B3
:1058F000B04225D0B84223D0604521D0DFF8509186
:10590000484502D14FF480191AE0DFF84891484524
:1059100002D14FF4801913E0DFF8349109F16009E6
:10592000484502D14FF480190AE0DFF8289109F1C7
:105930006009484502D14FF4801901E04FF08069B9
:1059400044483438C0F80090D8E0DFF804E10EF1A4
:10595000780E704542D9884202D14FF0100938E0E4
:10596000904202D14FF0100933E0984202D14FF03B
:1059700010092EE0A04202D14FF0100929E0A84200
:1059800027D0B04225D0B84223D0604521D0DFF8DF
:10599000C090484502D14FF480191AE0DFF8B49066
:1059A000484502D14FF4801913E0DFF8A49009F1C3
:1059B0006009484502D14FF480190AE0DFF894905D
:1059C00009F16009484502D14FF4801901E04FF018
:1059D000806920483838C0F800908FE0DFF870E028
:1059E0000EF1180E704546D9884202D14FF01009C9
:1059F0003DE0904202D14FF0100938E0984202D1C8
:105A00004FF0100933E0A04202D14FF010092EE010
:105A1000A8422CD0B0422AD0B84228D0604526D027
:105A2000DFF82C90484502D14FF480191FE0DFF8D1
:105A30002490484502D14FF4801918E0DFF8109007
:105A400009F16009484509D14FF480190FE00000C1
:105A5000406002404064024010050020DFF80494DA
:105A6000484502D14FF4801901E04FF08069FE48AB
:105A7000C0F80C9042E0884202D14FF010093AE0A1
:105A8000904202D14FF0100935E0984202D14FF018
:105A9000100930E0A04202D14FF010092BE0A842DB
:105AA00029D0B04227D0B84225D0604523D0DFF8B6
:105AB000B89309F14009484502D14FF480191AE022
:105AC000DFF8A093A9F16009484502D14FF480198D
:105AD00011E0DFF8949309F1A009484502D14FF491
