:020000040800F2
:1000000010820020290300085D52000803490008FF
:1000100059520008BD0A0008358A00080000000097
:10002000000000000000000000000000690200085D
:10003000D716000800000000C5020008D17E0008A5
:100040004303000843030008430300084303000878
:100050004303000843030008651700084303000832
:1000600043030008430300086F1700084303000818
:10007000210D000843030008430300084303000860
:100080004303000843030008430300084303000838
:10009000210B0008430300084303000879170008F8
:1000A0004303000843030008430300084303000818
:1000B00043030008CD7F0008430300084303000802
:1000C00043030008430300084303000843030008F8
:1000D00043030008E587000843030008F58700088C
:1000E00043030008430300084303000843030008D8
:1000F00043030008430300084303000843030008C8
:1001000043030008430300084303000843030008B7
:1001100043030008430300084303000843030008A7
:1001200043030008310D0008410D0008D9150008EF
:100130004303000843030008430300084303000887
:10014000310B000843030008430300084303000881
:1001500043030008E9150008430300081989000853
:100160004303000843030008430300084303000857
:100170004303000843030008430300080000000095
:10018000430300084303000800F002F800F05CF8A5
:100190000AA090E8000C82448344AAF10107DA45E2
:1001A00001D100F051F8AFF2090EBAE80F0013F0D8
:1001B000010F18BFFB1A43F001031847FC5301005D
:1001C0001C5401000A444FF0000C10F8013B13F0DE
:1001D000070408BF10F8014B1D1108BF10F8015BA0
:1001E000641E05D010F8016B641E01F8016BF9D193
:1001F00013F0080F1EBF10F8014BAD1C0C1B09D1EA
:100200006D1E58BF01F801CBFAD505E014F8016B5B
:1002100001F8016B6D1EF9D59142D6D370470000ED
:100220000023002400250026103A28BF78C1FBD8FF
:10023000520728BF30C148BF0B6070471FB514F08C
:100240008CFD1FBD10B510BD00F004FA1146FFF77C
:10025000F5FF10F035FF00F022FA03B4FFF7F2FFCC
:1002600003BC0AF008F900002C4B19680868B0E8D4
:10027000F04F80F30988BFF36F8F4FF0000080F3D9
:10028000118870470000000008480068006880F38B
:1002900008884FF0000080F3148862B661B6BFF39F
:1002A0004F8FBFF36F8F00DF00BF00BF08ED00E08E
:1002B000DFF80C00016841F470010160704700BF75
:1002C00088ED00E0EFF30980BFF36F8F134B1A68DE
:1002D0001EF0100F08BF20ED108A20E9F04F1060CB
:1002E00009B44FF0500080F31188BFF34F8FBFF374
:1002F0006F8F13F037FB4FF0000080F3118809BCBB
:1003000019680868B0E8F04F1EF0100F08BFB0EC95
:10031000108A80F30988BFF36F8F70474000002078
:10032000EFF30580704700000948804709480047FF
:10033000FEE7FEE7FEE7FEE7FEE7FEE7FEE7FEE795
:10034000FEE7FEE704480549054A064B70470000F2
:10035000B97F000889010008107C0020108200206D
:10036000107E0020107E0020704753EA020C00F03F
:1003700069802DE9F04B4FF00006002B1FBFB3FA48
:1003800083F503FA05F424FA05F65E4012BF16431E
:10039000B2FA82F502FA05F4C5F120051EBF22FA71
:1003A00005FC44EA0C04203556EA044C4FEA144498
:1003B00018BF641C4FF000084FF00009904271EB29
:1003C000030C39D3002919BFB1FA81F701FA07F6F6
:1003D000B0FA80F700FA07F6C7F120071EBF20FA2F
:1003E00007FC46EA0C062037B6FBF4FCA7EB050732
:1003F000103F07F01F0BCBF120060CFA0BFB2CFA79
:1004000006F644BFB3460026202FA4BF5E464FF039
:10041000000B5BEA060C08BF4FF0010B19EB0B0950
:10042000ABFB027C48EB0608C01B06FB02CC0BFBB7
:1004300003CC71EB0C01C1E70B460246414648462E
:10044000BDE8F08B13B54FF000004FF00001AFF3A3
:100450000080BDE81C40704710B5431C02E010F856
:10046000011B71B18107FAD14FF0013202C88C1A19
:100470008C4314EAC211F9D0C01A0A0603D0C01E78
:1004800010BDC01A10BD0A0401D0801E10BD0902A3
:10049000FCD0401E10BD032A40F2308010F0030C47
:1004A00000F0158011F8013BBCF1020F624498BFC7
:1004B00011F801CB00F8013B38BF11F8013BA2F164
:1004C000040298BF00F801CB38BF00F8013B11F0DF
:1004D000030300F02580083AC0F0088051F8043B7F
:1004E000083A51F804CBA0E80810F5E7121D5CBFEC
:1004F00051F8043B40F8043BAFF30080D20724BF1F
:1005000011F8013B11F801CB48BF11F8012B24BFB2
:1005100000F8013B00F801CB48BF00F8012B704701
:1005200010B5203AC0F00B80B1E81850203AA0E88E
:100530001850B1E81850A0E81850BFF4F5AF5FEAC2
:10054000027C24BFB1E81850A0E8185044BF18C975
:1005500018C0BDE810405FEA827C24BF51F8043B1C
:1005600040F8043B08BF7047D20728BF31F8023B70
:1005700048BF11F8012B28BF20F8023B48BF00F804
:10058000012B704702F0FF0343EA032242EA0242D2
:1005900000F002B84FF000020429C0F0128010F001
:1005A000030C00F01B80CCF1040CBCF1020F18BF4F
:1005B00000F8012BA8BF20F8022BA1EB0C0100F0E2
:1005C0000DB85FEAC17C24BF00F8012B00F8012BB5
:1005D00048BF00F8012B70474FF0000200B51346EA
:1005E00094469646203922BFA0E80C50A0E80C5053
:1005F000B1F12001BFF4F7AF090728BFA0E80C5004
:1006000048BF0CC05DF804EB890028BF40F8042BFC
:1006100008BF704748BF20F8022B11F0804F18BF69
:1006200000F8012B7047704770477047704710B54E
:1006300000F00CF8006810BD10B5044600F006F894
:10064000046010BD00487047AC7B00200048704734
:10065000AC7B00207546FFF7F5FFAE460500694606
:10066000534620F00700854618B020B5FFF76AFE14
:10067000BDE820404FF000064FF000074FF00008A3
:100680004FF0000B21F00701AC46ACE8C009ACE824
:10069000C009ACE8C009ACE8C0098D46704710B588
:1006A0000446AFF300802046BDE81040FFF7D5BDFB
:1006B00010B501221021024802F05EFA10BD0000C0
:1006C0000000024010B500221021024802F054FA46
:1006D00010BD0000000002407047000010B501226C
:1006E0001146024802F048FA10BD00000004024022
:1006F00010B500220121024802F03EFA10BD0000B0
:100700000004024010B543781B021BB20478234357
:1007100000EE103AB8EEC01A1C4BD3ED001A21EED1
:10072000211A81ED001AC3781B021BB2847823437F
:1007300000EE103AB8EEC01A144BD3ED001A21EEB9
:10074000211A81ED011A43791B021BB2047923435C
:1007500000EE103AB8EEC01A0C4BD3ED001A21EEA1
:10076000211A81ED021A037A1B04C47943EA042397
:100770008479234300EE903AB8EE601ADFED041A54
:1007800021EE211A82ED001A10BD0000080200209F
:1007900000401C42704710B5044603E04FF47A70E5
:1007A00000F006F8201EA4F101018CB2F6D110BDB4
:1007B00070B5034600BF00BF0020002200BF4FF00D
:1007C000E0267569A82603FB06F44FF0E026B16920
:1007D00010E04FF0E026B06988420BD0884202D288
:1007E0000E1A324402E02E1A0E4432440146A2424E
:1007F00000D300E0EDE700BF70BD000042781202B8
:1008000012B203781A4300EE102AF8EEC00A144A16
:1008100092ED001A60EE810AC1ED000AC278120260
:1008200012B283781A4300EE102AF8EEC00A0C4A7E
:1008300092ED001A60EE810AC1ED010A42791202BE
:1008400012B203791A4300EE102AF8EEC00A044AE5
:1008500092ED001A60EE810AC1ED020A70470000B5
:100860000C02002010B50024FFF736FFFFF792FFBF
:1008700009F0D0FE10B144F0800402E009F030FE2F
:1008800004430AF0BFF810B144F0400402E00AF05B
:100890003FF80443204610BD2DE9FC4105460E46B5
:1008A0001746002000900190FFF70CFF922000F007
:1008B000D1F806226946122000F0ACF8FFF7F8FEE6
:1008C0009DF80100000200B29DF8001040EA01040A
:1008D00000EE104AB8EEC00A4C48D0ED000A20EEF7
:1008E000200A86ED000A9DF80300000200B29DF880
:1008F000021040EA010400EE104AB8EEC00A434874
:10090000D0ED000A20EE200A86ED010A9DF80500D0
:10091000000200B29DF8041040EA010400EE104A03
:10092000B8EEC00A3948D0ED000A20EE200A86ED64
:10093000020AFFF7DDFE08226946002000F06AF88F
:10094000FFF7CCFE9DF800000F2838D19DF803007A
:10095000000200B29DF8021040EA010400EE104AC5
:10096000B8EEC00A2A48D0ED000A20EE200A85ED34
:10097000000A9DF80500000200B29DF8041040EA4C
:10098000010400EE104AB8EEC00A2148D0ED000A7A
:1009900020EE200A85ED010A9DF80700000200B252
:1009A0009DF8061040EA010400EE104AB8EEC00AB5
:1009B0001748D0ED000A20EE200A85ED020AFFF765
:1009C00081FEA22000F046F802226946222000F0B3
:1009D00021F8FFF76DFE9DF80000C0009DF80110A2
:1009E00040EA6114B4F5806F02DBA4F5006004B244
:1009F00000EE104AF8EEC00AB4EE001AB3EE070A91
:100A000000EE810A87ED000ABDE8FC8108020020A3
:100A10000C02002070B506460C46154646F08000D4
:100A200000F018F806E0552000F014F82070641C5F
:100A3000681EC5B2002DF6D170BD70B504460D46D6
:100A400044F0800000F006F8552000F003F828700C
:100A500070BD000001B582B04FF47A70012301AA85
:100A600002A90090024802F07DFE9DF804000EBD30
:100A70003405002010B502461378DB00547843EAB1
:100A80006410B0F5806F02DBA0F5006318B200EED1
:100A9000100AF8EEC00AB4EE001AB3EE070A00EE30
:100AA000810A81ED000A10BD70B505460C46284646
:100AB000FFF7D0FF2046FFF7CDFF70BD00BFFEE778
:100AC000C82012F049FE0AF0DFF923E0124800784E
:100AD000012802D11148007830B10F48007850B990
:100AE0000E480078012806D10AF0D6F90B480078A4
:100AF000401C0A4908700848007840B90748007847
:100B0000022804D10AF0C0F90020044908706420CA
:100B100012F022FEDAE70000AC000020A80000205E
:100B200010B5024801F015F910BD0000E4040020E2
:100B300010B5024801F00DF910BD00000C050020B1
:100B40004FF4FA7012F008FE0AF0BCF906E00AF061
:100B5000F3F90CF0A5FF012012F0FEFDF7E700000D
:100B60004FF4FA7012F0F8FD0AF03CFA0AF098FB24
:100B7000B5E01AE000231A46194618460FF0AEFAFF
:100B800000231A46194618460FF0DAFA9FED542A48
:100B9000DFED531A9FED521ADFED510A9FED500A17
:100BA0000FF000FC642012F0D7FD4E4800780028BA
:100BB000E0D14D4800780028DCD10AF087FA0AF02D
:100BC00039FC4A480078092811DD49480389406802
:100BD00000EE100A4748007BC0F3400245484189B7
:100BE000454800780FF094FB0020404908703F48CA
:100BF0000078401C3D49087040480078012824DDF9
:100C00003F4C94EDF20ABDEEC00A10EE104A23B23A
:100C10003B4C94EDA90ABDEEC00A10EE104A22B278
:100C2000374C94ED600ABDEEC00A10EE104A21B2B6
:100C3000334C94ED170ABDEEC00A10EE104A20B2F4
:100C40000FF04CFA00202D4908702C480078401C09
:100C50002A4908702B4890ED2C0AB0EE402ADFEDAF
:100C6000201A9FED1F1ADFED1E0A9FED1D0A0FF0DF
:100C700099FB254991ED170ABDEEC00A10EE101A36
:100C800008B200231A4619460FF05AFA1F48008886
:100C900031281CDD1648008900EE900AF8EE600A43
:100CA000B0EE601A1248406800EE100A1848D0ED05
:100CB000002A184890ED002A1748D0ED001A17486E
:100CC000D0ED000A10F032FB0020104908800F48D8
:100CD0000088401C0D490880012012F03DFD48E7C6
:100CE00000000000E3000020E4000020CE0000200F
:100CF000945E0020875E002000020020CF000020CC
:100D00009C6D0020047900202C720020CC00002073
:100D1000480200205C020020440200205002002013
:100D200010B5024801F02EFC10BD0000FC070020A9
:100D300010B5024801F026FC10BD00005C08002040
:100D400010B5FE48C06C0068FD49884276D9FC4861
:100D500054380068F949C96C0968FA4A914201D1CE
:100D6000202169E0F549C96C0968F54A483A914281
:100D700001D1202160E0F149C96C0968F14A603273
:100D8000914201D1202157E0EC49C96C0968EC4A35
:100D90001832914201D120214EE0E849C96C09681E
:100DA000E84A1832914201D1C91445E0E349C96CBF
:100DB0000968E34A303A914201D1C9143CE0DF4965
:100DC000C96C0968DF4A7832914201D1C91433E015
:100DD000DA49C96C0968DA4A3032914201D1C91442
:100DE0002AE0D649C96C0968D64A3032914202D10C
:100DF0004FF4001120E0D149C96C0968D04A183A73
:100E0000914202D14FF4001116E0CC49C96C096837
:100E1000CC4A9032914202D14FF400110CE0C74904
:100E2000C96C0968C64A4832914203D14FF4001197
:100E300002E003E04FF00061084070E1BF48C06C81
:100E40000068C049A831884276D9BD485838006842
:100E5000BA49C96C0968BB4A914201D1202169E0B5
:100E6000B649C96C0968B64A483A914201D1202175
:100E700060E0B249C96C0968B24A6032914201D15E
:100E8000202157E0AD49C96C0968AD4A183291423A
:100E900001D120214EE0A949C96C0968A94A18323C
:100EA000914201D1C91445E0A449C96C0968A44A1A
:100EB000303A914201D1C9143CE0A049C96C09689B
:100EC000A04A7832914201D1C91433E09B49C96CE0
:100ED00009689B4A3032914201D1C9142AE09749EE
:100EE000C96C0968974A3032914202D14FF400111F
:100EF00020E09249C96C0968914A183A914202D19E
:100F00004FF4001116E08D49C96C09688D4A903282
:100F1000914202D14FF400110CE08849C96C096874
:100F2000874A4832914203D14FF4001102E003E0B6
:100F30004FF000610840F2E08048C06C00688149D1
:100F40004831884276D97F48103840687B49C96C5F
:100F500009687C4A914201D1202169E07749C96C36
:100F60000968774A483A914201D1202160E07349EB
:100F7000C96C0968734A6032914201D1202157E05F
:100F80006E49C96C09686E4A1832914201D120211C
:100F90004EE06A49C96C09686A4A1832914201D127
:100FA000C91445E06549C96C0968654A303A9142FF
:100FB00001D1C9143CE06149C96C0968614A7832C1
:100FC000914201D1C91433E05C49C96C09685C4A9B
:100FD0003032914201D1C9142AE05849C96C0968DC
:100FE000584A3032914202D14FF4001120E0534967
:100FF000C96C0968524A183A914202D14FF4001163
:1010000016E04E49C96C09684E4A9032914202D1AD
:101010004FF400110CE04949C96C0968484A48324C
:10102000914203D14FF4001102E003E04FF0006160
:10103000084074E04348103800684049C96C0968AA
:10104000404A914201D1202168E03C49C96C0968BD
:101050003B4A483A914201D120215FE03749C96CAF
:101060000968384A6032914201D1202156E0334963
:10107000C96C0968324A1832914201D120214DE0F1
:101080002E49C96C09682F4A1832914201D1C914FE
:1010900044E02A49C96C0968294A303A914201D191
:1010A000C9143BE02549C96C0968264A7832914247
:1010B00001D1C91432E02149C96C0968204A303293
:1010C000914201D1C91429E01C49C96C09681D4A23
:1010D0003032914202D14FF400111FE01749C96C20
:1010E0000968174A183A914202D14FF4001115E0ED
:1010F0001249C96C0968134A9032914202D14FF4E7
:1011000000110BE00D49C96C09680D4A4832914243
:1011100002D14FF4001101E04FF0006108400028B7
:101120006FD00648C06C0068054988427BD90348E7
:10113000C06C00680349884208D105E034050020EE
:101140005864024010600240202068E0FE48C06CF5
:101150000068FE49884201D1202060E0FA48C06C56
:101160000068FB49884201D1202058E0F648C06C55
:101170000068F6496031884201D120204FE0F248F2
:10118000C06C0068F2494839884201D1C01446E079
:10119000ED48C06C0068ED491831884201D1C01497
:1011A0003DE0E948C06C0068E9491831884201D146
:1011B000C01434E0E448C06C0068E44978318842E7
:1011C00001D1C0142BE0E048C06C0068E049303920
:1011D000884202D14FF4001021E0DB48C06C006867
:1011E000DA493031884202D14FF4001017E0D64876
:1011F000C06C0068D6493031884204D14FF40010E9
:101200000DE0DFE10FE0D048C06C0068CF499031BD
:10121000884202D14FF4001001E04FF00060CB494A
:10122000091F08606AE1C848C06C0068C8494831B5
:10123000884274D9C448C06C0068C5496039884286
:1012400001D1202066E0C048C06C0068BF498842D8
:1012500001D120205EE0BC48C06C0068BC498842D7
:1012600001D1202056E0B848C06C0068B749603111
:10127000884201D120204DE0B348C06C0068B449D9
:101280004839884201D1C01444E0AF48C06C0068BE
:10129000AE491831884201D1C0143BE0AA48C06C65
:1012A0000068AB491831884201D1C01432E0A64829
:1012B000C06C0068A5497831884201D1C01429E08A
:1012C000A148C06C0068A2493039884202D14FF46D
:1012D00000101FE09C48C06C00689C493031884277
:1012E00002D14FF4001015E09748C06C006898498F
:1012F0003031884202D14FF400100BE09248C06CAC
:10130000006892499031884202D14FF4001001E008
:101310004FF000608D4908390860EFE0FFE78A4828
:10132000C06C00688A491839884274D98648C06CF4
:10133000006887496039884201D1202066E08248F0
:10134000C06C00688149884201D120205EE07E485F
:10135000C06C00687E49884201D1202056E07A485E
:10136000C06C006879496031884201D120204DE08D
:101370007548C06C006876494839884201D1C0146C
:1013800044E07148C06C006870491831884201D14E
:10139000C0143BE06C48C06C00686D49183188424D
:1013A00001D1C01432E06848C06C006867497831E8
:1013B000884201D1C01429E06348C06C00686449C8
:1013C0003039884202D14FF400101FE05E48C06CF3
:1013D00000685E493031884202D14FF4001015E0B8
:1013E0005948C06C00685A493031884202D14FF4E4
:1013F00000100BE05448C06C00685449903188429A
:1014000002D14FF4001001E04FF0006050497039F4
:10141000C86073E0FFE74C48C06C00684C49603915
:10142000884201D1202066E04748C06C00684749E7
:10143000884201D120205EE04348C06C00684449E6
:10144000884201D1202056E03F48C06C00683F49E7
:101450006031884201D120204DE03B48C06C0068DB
:101460003B494839884201D1C01444E03648C06C39
:10147000006836491831884201D1C0143BE0324837
:10148000C06C006832491831884201D1C01432E082
:101490002D48C06C00682D497831884201D1C014B4
:1014A00029E02948C06C006829493039884202D1B6
:1014B0004FF400101FE02448C06C0068234930310D
:1014C000884202D14FF4001015E01F48C06C00683C
:1014D0001F493031884202D14FF400100BE01A4806
:1014E000C06C006819499031884202D14FF4001055
:1014F00001E04FF0006016497039886015480078A7
:1015000000F0020078B11348007820F00200114981
:1015100008700846007840F0040008700122114667
:101520000D4801F029FB0D48007800F00200E0B101
:101530000A48007820F00200084908700846007840
:1015400040F0040008700BE03405002010640240F5
:101550007060024029010020000402402A0100209E
:1015600001221021184801F007FB1848007800F00C
:10157000020078B11548007820F002001349087085
:101580000846007840F004000870012210210E483F
:1015900001F0F2FA0FF0CAFB0D48007800F00400E9
:1015A00080B10B48007820F0040009490870084613
:1015B000007840F0080008700648006840F001001C
:1015C0000449086010BD0000000002402B0100200B
:1015D00029010020103C014010B5024800F0D2FF64
:1015E00010BD0000EC05002010B5024800F0CAFF55
:1015F00010BD0000BC0800200146087810381823F0
:10160000B0FBF3F20848805CC865032A05D9086876
:101610006FF30900001D886503E008686FF3090097
:101620008865886D70470000A44E010801460020BF
:101630008A6A8B69CBB932B1012A0DD0022A03D054
:10164000032A10D10EE000BFCB6A03F08073B3F120
:10165000807F00D1012007E0CB6AB3F1C07F00D1C9
:10166000012001E000E000BF34E08B69B3F5005FCA
:101670001AD132B1012A07D0022A03D0032A11D18C
:101680000AE000BF01200EE0CB6A03F08073B3F1E3
:10169000807F00D1012006E0CB6AB3F1C07F00D18A
:1016A000012000E000BF15E032B1012A05D0022A76
:1016B00004D0032A0CD103E000BF00BF012008E0E2
:1016C000CB6A03F08073B3F1807F00D1012000E08A
:1016D00000BF00BF70477047642012F03DF80BF068
:1016E00075F9642012F038F82EE00CF0FDFE174971
:1016F00008700CF07BFF164908700FF0EFF81549E1
:1017000008700EF097FF144908701448408A00F4DE
:10171000007070B11148408A00F4804048B1104810
:101720000078002805DD0E480078401E0C4908703E
:1017300002E032200A4908700948007808B901F02F
:101740003BFB142012F008F8CFE70000E300002074
:10175000E4000020E5000020E6000020587B002087
:10176000E200002010B5012001F0FEF810BD10B518
:10177000102001F0F9F810BD10B5202001F0F4F8A8
:1017800010BD72B600BFFEE7002110EE101A080E61
:10179000044A1070080C5070080A9070D1701046FE
:1017A00070470000360200200146C1F30720704751
:1017B0004FF4FA7011F0D0FF0BF06CFB0BF02EF928
:1017C0000DF000F80EF0C0FF0EF068FF92E014E09C
:1017D00000231A46194618460EF04EFC9FED462A85
:1017E000DFED451A9FED441ADFED430A9FED420AF3
:1017F0000FF0B0FC642011F0AFFF404800780028E3
:10180000E6D13F4800780028E2D10BF0D7F90EF07E
:1018100049FE0BF041FC0DF079F83A480088132896
:101820000BDD3948D0F8030000EE100A3748007885
:101830000EF038FD00203349088032480088401CF3
:101840003049088032480088032815DB314890ED84
:10185000002AF0EE421A90ED032AB0EE421A90ED03
:10186000022AF0EE420A90ED012AB0EE420A0EF092
:101870009DFC01202649088025480088401C2449F9
:1018800008802548007801281DDD244B93EDA90A26
:10189000BDEEC00A10EE103A1AB2204B93ED600A6A
:1018A000BDEEC00A10EE103A19B21C4B93ED170AA8
:1018B000BDEEC00A10EE103A18B200230EF0DCFBA9
:1018C00000201549087014480078401C124908701F
:1018D0001348D0ED170AB0EE600A9FED072ADFED3E
:1018E000061A9FED051ADFED040A0FF033FC012004
:1018F00011F032FF6BE7000000000000E300002061
:10190000E4000020F00000208A010020FE000020FA
:10191000F2000020405E0020F40000205073002000
:10192000B879002010B5024692F82030012B01D082
:10193000022B06D1106840690843146860610020DA
:1019400010BD506A40F4802050620120F8E7F0B5E5
:1019500004460D461E4694F8207020688368A868E7
:1019600000B900E000BF012F01D0022F7DD103F0AC
:10197000806030B903F0006018B903F0805000288F
:101980007ED0C3F30161012088403060A86860B94F
:10199000B5F800C0E86840EA4C5C206800F5C0700B
:1019A00000EB0110C0F800C00FE0D5E901C040EA2B
:1019B000CC00D5F80CC040EA0C00D4F800C00CF5FF
:1019C000C07C0CEB011CCCF80000D5F810C02068DE
:1019D00000F5C07000EB0110C0F804C0287D01289C
:1019E0000ED1206800F5C07000EB0110406840F493
:1019F000807C206800F5C07000EB0110C0F804C0C6
:101A0000D079000692F806C040EA0C4092F805C072
:101A100040EA0C2092F804C040EA0C00D4F800C060
:101A20000CF5C07C0CEB011CCCF80C00D078000647
:101A300092F802C040EA0C4092F801C040EA0C2043
:101A400092F800C040EA0C00D4F800C00CF5C07C4D
:101A50000CEB011CCCF80800206800F5C07000EB0E
:101A60000110006840F0010C01E00FE008E0206880
:101A700000F5C07000EB0110C0F800C00020F0BD00
:101A8000606A40F4001060620120F8E7606A40F488
:101A9000802060620120F2E7F0B504460A46216822
:101AA00094F82050012D01D0022D7ED1424901F53C
:101AB0000071086840F001000860086820F47C505C
:101AC00008600868566A40EA06200860107D00F049
:101AD0001F06012000FA06F3C8699843C861A1F502
:101AE0000071D069C8B9D1F80C029843C1F80C0252
:101AF000908880B2968940EA064601F510705769D1
:101B000040F83760108880B2168940EA064601F531
:101B10001070576900EBC7004660D069012819D1E1
:101B2000D1F80C021843C1F80C02908880B21688D4
:101B300040EA064601F51070576940F83760908911
:101B400080B2168940EA064601F51070576900EB2D
:101B5000C7004660906928B9D1F804029843C1F8DB
:101B6000040204E0D1F804021843C1F80402106929
:101B700028B9D1F814029843C1F8140204E0D1F84E
:101B800014021843C1F81402106A012804D1D1F8D4
:101B90001C021843C1F81C02D1F8000220F0010019
:101BA000C1F800020020F0BDFFE7606A40F4802029
:101BB00060620120F7E7000000640040704770B5E4
:101BC000044694F82050012D01D0022D7DD151B949
:101BD0002068C06800F0030080B9606A40F400101B
:101BE0006062012070BD2068006900F0030028B920
:101BF000606A40F4001060620120F3E7206800F59D
:101C0000D87000EB0110006800F00400906090684C
:101C100040B9206800F5D87000EB01100068400D55
:101C2000106007E0206800F5D87000EB0110006834
:101C3000C0085060206800F5D87000EB0110006803
:101C400000F00200D060206800F5D87000EB0110B1
:101C5000406800F00F00082802D30820106108E057
:101C6000206800F5D87000EB0110406800F00F000C
:101C70001061206800F5D87000EB0110406800F496
:101C80007F40000A9061206800F5D87000EB0110D9
:101C90004068000C5061206800F5D87000EB01101E
:101CA00080681870206800F5D87000EB011080681B
:101CB00000F47F40000A5870206800F5D87000EBEF
:101CC0000110806800F47F0000E03CE0000C987098
:101CD000206800F5D87000EB01108068000ED87005
:101CE000206800F5D87000EB0110C06818712068FA
:101CF00000F5D87000EB0110C06800F47F40000AC6
:101D00005871206800F5D87000EB0110C06800F42D
:101D10007F00000C9871206800F5D87000EB01106E
:101D2000C068000ED87131B92068C06840F020004A
:101D30002668F06005E02068006940F02000266811
:101D4000306100204EE7606A40F48020606201202C
:101D500048E72DE9F05F04460025206846692068C1
:101D6000D0F80490206887682068D0F80CA020681C
:101D7000D0F810B02068D0F8188006F001000028D4
:101D800055D007F00100C0B101202168886007F03C
:101D9000020018B1204600F084FB0EE007F00400BA
:101DA00010B145F4006508E007F0080010B145F4F3
:101DB000805502E0204600F073FB07F48070C8B144
:101DC0004FF480702168886007F4007018B12046D5
:101DD00000F069FB0EE007F4806010B145F4005597
:101DE00008E007F4006010B145F4804502E02046A9
:101DF00000F058FB07F48030C8B14FF48030216800
:101E0000886007F4003018B1204600F04EFB0EE069
:101E100007F4802010B145F4004508E007F40020E5
:101E200010B145F4803502E0204600F03DFB06F09D
:101E3000080038B10AF0100020B145F400751020F8
:101E40002168C86006F0040040B10AF0080028B11B
:101E500008202168C860204600F00CFA06F0020055
:101E600038B12068C06800F0030010B1204600F0CF
:101E700003FA06F0400038B10BF0100020B145F431
:101E8000806510202168086106F0200040B10BF049
:101E9000080028B1082021680861204600F0CEFA29
:101EA00006F0100038B12068006900F0030010B19E
:101EB000204600F0C4FA06F4003040B109F01000EA
:101EC00028B1102021684860204600F0B9FA06F4D5
:101ED000803040B109F0080028B10820216848602E
:101EE000204600F0E3FA06F4004088B309F004004D
:101EF00078B306F4807020B108F0010008B145F015
:101F0000010506F4007020B108F0020008B145F0A8
:101F1000020506F4806020B108F0040008B145F025
:101F2000040506F40060A0B108F0700088B108F064
:101F30007000402817D006DC10280BD020280CD0C9
:101F4000302819D10CE0502810D0602814D110E0AE
:101F50001DE019E045F008050FE045F010050CE024
:101F600045F0200509E045F0400506E045F0800514
:101F700003E045F4807500E000BF00BF2068806981
:101F800020F07000216888610420216848602DB12C
:101F9000606A284360622046FFF710FEBDE8F09FAC
:101FA00070B504460CB9012070BD94F8200010B93A
:101FB000204600F0AFF82068006840F0010021687A
:101FC000086000F0DFFD05460DE000F0DBFD401B82
:101FD0000A2808D9606A40F400306062052084F85D
:101FE00020000120E0E72068406800F001000028A0
:101FF000EBD02068006820F002002168086000F043
:10200000C1FD05460DE000F0BDFD401B0A2808D9C2
:10201000606A40F400306062052084F820000120EE
:10202000C2E72068406800F002000028EBD1207E63
:10203000012806D12068006840F08000216808600F
:1020400005E02068006820F0800021680860607E5C
:10205000012806D12068006840F04000216808602F
:1020600005E02068006820F0400021680860A07E3C
:10207000012806D12068006840F02000216808602F
:1020800005E02068006820F0200021680860E07EFC
:10209000012806D12068006820F01000216808603F
:1020A00005E02068006840F0100021680860207F8B
:1020B000012806D12068006840F008002168086007
:1020C00005E02068006820F0080021680860607F53
:1020D000012806D12068006840F0040021680860EB
:1020E00005E02068006820F0040021680860D4E959
:1020F0000201084321690843616908436168491E78
:1021000008432168C86100206062012084F8200033
:10211000002049E710B586B00446142101A8FEF757
:102120005BFA4E492068884241D14D480068401C06
:102130004B4908600846006801280FD100BF002005
:1021400000904848006840F0007046490860084622
:10215000006800F00070009000BF00BF00BF0020CA
:10216000009040481038006840F008003D491039A0
:1021700008600846006800F00800009000BF00BF3B
:10218000032001900220029000200390032004907D
:102190000920059001A9344800F0F4FB0022052134
:1021A000142000F0B7FD142000F0A0FD54E02F49EA
:1021B0002068884250D100BF002000902948006864
:1021C00040F08060274908600846006800F08060A1
:1021D000009000BF00BF22480068401C20490860F2
:1021E0000846006801280FD100BF002000901D485C
:1021F000006840F000701B4908600846006800F065
:102200000070009000BF00BF00BF00200090154884
:102210001038006840F00200124910390860084682
:10222000006800F00200009000BF00BF6020019035
:1022300002200290002003900320049009200590C2
:1022400001A90B4800F09EFB00220521402000F070
:1022500061FD402000F04AFD06B010BD0064004062
:102260002C00002040380240000C02400068004072
:10227000000402407047000030B589B004466B4648
:1022800002AA00212046FFF79AFC0498002876D184
:102290005B48844248D140F203220298811A90425E
:1022A00011D007DC04281FD0A0F2012048B101287A
:1022B00038D107E0012907D0022921D0FE2931D1E8
:1022C0002BE000BF00BF00BF00250298401EC5B232
:1022D00005EB85014B4A02EB410069460EF088FC94
:1022E000284608F083FF1EE00025C5EB051101EB31
:1022F0004101454A02EB810069460EF0E1FB12E024
:10230000002505EB8501414A02EB410069460EF0CC
:102310006FFC28460CF080FF05E069463C480EF053
:102320008DFB00E000BF00BF3A48844265D140F217
:1023300003220298811A90420FD007DCFF281FD099
:10234000A0F2012038B101283AD105E0032924D0B8
:10235000042935D122E000BF00BF0298401E2E495B
:102360000870097801EB81012C4A02EB41006946B3
:102370000EF03EFC284800780AF062FD21E021E0E2
:10238000694627480EF030FBDFED260A9FED260A4E
:10239000234808300AF02EFB13E000BF0298801F8C
:1023A00022490870097801EB8101214A02EB4100C2
:1023B00069460EF01DFC1D4800780AF069FC00BF5C
:1023C00000BF1AE00398FFF7EFF91A4908600846C2
:1023D000006801280FD10398000E38B169461648ED
:1023E000039A0EF0BFFB0AF025FE03E09DF8000003
:1023F0001149C87500E000BF00BF09B030BD000042
:102400000C050020706C002004790020986C0020DE
:10241000107B0020E404002040020020A26C002079
:10242000207B00203333B33E6666E6BE41020020C7
:10243000C06C00203C020020D46C00207047704724
:10244000704770B5044694F82000012822D102207C
:1024500084F820002068006820F0010021680860EE
:1024600000F090FB05460DE000F08CFB401B0A28B5
:1024700008D9606A40F400306062052084F82000CA
:10248000012070BD2068406800F001000028EBD1F9
:102490006062F6E7606A40F4002060620120F0E7C5
:1024A000704770477047704770477047704770B506
:1024B0000446A56D00F066FB064694F83500022838
:1024C00008D08020606500BF002084F8340000BF81
:1024D000012070BD2068006820F0160021680860A7
:1024E0002068406920F0800021684861206C08B9AC
:1024F000A06C28B12068006820F0080021680860FE
:102500002068006820F001002168086010E000F0F9
:1025100039FB801B05280BD920206065032084F837
:10252000350000BF002084F8340000BF0320D0E74E
:102530002068006800F001000028E8D194F85C10E1
:102540003F208840A860012084F8350000BF0020AB
:1025500084F8340000BF00BFBBE7014691F83500A6
:10256000022803D08020486501207047052081F8AB
:1025700035000868006820F001000A68106000203B
:10258000F3E70000F8B50446002000908C4800688E
:102590004FF41651B0FBF1F7A56D2E6894F85C105E
:1025A00008208840304098B12068006800F004009E
:1025B00070B12068006820F004002168086094F879
:1025C0005C1008208840A860606D40F001006065E4
:1025D00094F85C1001208840304068B12068406960
:1025E00000F0800040B194F85C1001208840A860A1
:1025F000606D40F00200606594F85C100420884033
:10260000304068B12068006800F0020040B194F8E2
:102610005C1004208840A860606D40F00400606594
:1026200094F85C1010208840304078B3206800682F
:1026300000F0080050B394F85C1010208840A860A7
:102640002068006800F4802080B12068006800F4F1
:10265000002028B9206CC8B12046216C884715E0BD
:10266000A06C98B12046A16C88470FE020680068F4
:1026700000F4807028B92068006820F00800216804
:102680000860206C10B12046216C884794F85C10DB
:10269000202088403040002865D02068006800F085
:1026A000100000285FD094F85C1020208840A860BB
:1026B00094F83500052828D12068006820F016001D
:1026C000216808602068406920F080002168486126
:1026D000206C08B9A06C28B12068006820F00800C0
:1026E0002168086094F85C103F208840A8600120B1
:1026F00084F8350000BF002084F8340000BF206D4E
:1027000010B12046216D8847F8BD2068006800F4AC
:10271000802080B12068006800F4002028B9606C37
:1027200010B12046616C88471DE0E06BD8B12046AF
:10273000E16B884717E02068006800F4807068B992
:102740002068006820F0100021680860012084F8EB
:10275000350000BF002084F8340000BFE06B10B1EA
:102760002046E16B8847606D38B3606D00F0010072
:10277000F0B1052084F835002068006820F00100E1
:102780002168086000BF0098401C0090B84200D942
:1027900005E02068006800F001000028F3D100BFC8
:1027A000012084F8350000BF002084F8340000BF09
:1027B000E06C10B12046E16C884700BFA4E7000040
:1027C0003C0000202DE9F0410446002500F0DAF934
:1027D000074614B90120BDE8F081606A00B100BF6E
:1027E000022084F8350000BF002084F8340000BFC8
:1027F0002068006820F00100216808600AE000F00D
:10280000C1F9C01B052805D920206065032084F884
:102810003500E0E72068006800F001000028EED1F4
:102820002068056821480540D4E901010843E168B2
:1028300008432169084361690843A1690843E169C4
:102840000843216A08430543606A042803D1D4E998
:102850000B0108430543206805602068456925F0A1
:102860000705606A0543606A04280DD1A06A054324
:10287000E06A48B12046FEF7D9FE28B140206065E5
:10288000012084F83500A6E7206845612046FEF760
:10289000B3FE064694F85C103F208840B0600020EC
:1028A0006065012084F83500002094E73F8010F037
:1028B00070B5044600F066F906462546681C10B15E
:1028C00004480078054400BF00F05CF9801BA84272
:1028D000FAD370BD3800002010B50446102C11D179
:1028E0001A48007840F0010018490870184800782C
:1028F00040F00100164908701648007828B30EF021
:1029000015FA22E0202C0BD11348007840F001008A
:10291000114908700F480078B8B10EF007FA14E0BA
:10292000012C12D111F032FA01280ED00B490C48BB
:10293000006810F03FFF0948006830B120070949DE
:102940000860BFF34F8FBFF36F8F10BD2A010020C7
:102950002B0100202C01002029010020580100201B
:102960000401002004ED00E010B5044604480068AE
:10297000204020B1024804602046FFF7ADFF10BDA3
:10298000143C0140F8B502460B4600250024002007
:102990000021D6E0012606FA01F51E6806EA0504C4
:1029A000AC4274D11E7906F00306012E04D01E79C4
:1029B00006F00306022E13D190684F000326BE4096
:1029C000B0434F00DE68BE4030439060506801263F
:1029D0008E40B0431E79C6F300168E4030435060DF
:1029E0001E7906F00306032E09D0D0684F00032697
:1029F000BE40B0434F009E68BE403043D0601E7959
:102A000006F00306022E13D1CF0802F1200656F875
:102A100027004E07F70E0F26BE40B0434F07FF0EAC
:102A20001E69BE403043CF0802F1200646F8270059
:102A300010684F000326BE40B0431E7906F003061F
:102A40004F00BE40304310605E6806F44036002EF2
:102A500076D000BF002600963C4E366846F480468D
:102A60003A4F3E603E46366806F48046009600BF08
:102A700000BF374E8F0856F827008E07370F0F26F6
:102A8000BE40B043334EB24202D1002624E057E0AC
:102A9000314EB24201D101261EE0304EB24201D188
:102AA000022619E02E4EB24201D1032614E02D4E2B
:102AB000B24201D104260FE02B4EB24201D10526CD
:102AC0000AE02A4EB24201D1062605E0284EB24263
:102AD00001D1072600E008268F073F0FBE40304394
:102AE0001B4E8F0846F82700224E3068A0435E68D0
:102AF00006F4801606B120431E4E3060361D306845
:102B0000A0435E6806F4001606B12043194E361D38
:102B10003060184E361F3068A0435E6806F40036F9
:102B200006B12043134E361F3060361F3068A04375
:102B30005E6806F4803606B120430E4E083E3060D3
:102B4000491C1029FFF426AFF8BD000044380240AC
:102B50000838014000000240000402400008024022
:102B6000000C024000100240001402400018024015
:102B7000001C0240083C01400AB1816101E00B04E5
:102B800083617047014800687047000030000020F2
:102B90000348006803490978084401490860704700
:102BA000300000203800002010B50D48006840F4C7
:102BB00000700B4908600846006840F480600860B7
:102BC0000846006840F480700860032000F0E0F8D8
:102BD0000F2000F007F800F05FF8002010BD0000A3
:102BE000003C02402DE9F04188B004460027B84679
:102BF00000BF002001902348006840F002002149F6
:102C000008600846006800F00200019000BF00BFA5
:102C100002A903A800F0A8F9069F1FB900F0CCF99B
:102C2000054602E000F0C8F945001748B5FBF0F092
:102C3000A0F1010815481649086040F2E731144830
:102C4000C160C0F80480002101618160816100F0F1
:102C500009FF064696B90E4800F06AFF06466EB9AF
:102C60001D2000F043F8102C07D2002221461D2021
:102C700000F050F80748046000E00126304608B034
:102C8000BDE8F0814038024040420F00000400409F
:102C90001C0900203400002008B500BF002000906F
:102CA0001148006840F480400F49086008460068F9
:102CB00000F48040009000BF00BF00BF00200090E3
:102CC000081F006840F08050091F0860084600682F
:102CD00000F08050009000BF00BF00220F21901E26
:102CE00000F018F808BD00004438024001460846CC
:102CF00000280DDB00BF00BF00F01F0301229A4037
:102D000043099B0003F1E023C3F8002100BF00BF8B
:102D100000BF70472DE9F05F80460D46164600273C
:102D200005F0B6FE074639462A46334601F007004D
:102D3000C0F1070ABAF1040F02D94FF0040A01E00A
:102D4000C0F1070AD14600F1040ABAF1070F02D216
:102D50004FF0000A01E0A0F1030AD4464FF0010A47
:102D60000AFA09FAAAF1010A0AEA020A0AFA0CFAAC
:102D70004FF0010B0BFA0CFBABF1010B0BEA030B51
:102D80004AEA0B042146404605F08AFEBDE8F09F62
:102D900000BF00F00702064B19684FF6FF03194009
:102DA000044B0B4343EA0221014B196000BF7047FB
:102DB0000CED00E00000FA0500BFBFF34F8F07489D
:102DC000006800F4E06006490843001D03490860FC
:102DD000BFF34F8F00BF00BF00BFFDE70CED00E069
:102DE0000000FA0570B504460D460CB9012070BD0F
:102DF0005848006800F00700A84209D255490D70F4
:102E00000846006800F00700A84201D00120EEE764
:102E1000207800F0020002281DD1207800F0040084
:102E2000042805D14C48006840F4E0504A49086045
:102E3000207800F00800082805D14748006840F4D1
:102E40006040454908604448006820F0F000A168EF
:102E5000084341490860207800F00100A8B3606889
:102E6000012807D13C4808380068C0F34040B8B991
:102E70000120BCE76068022802D06068032807D1FF
:102E8000354808380068C0F3406048B90120AEE713
:102E9000314808380068C0F3400008B90120A6E7AF
:102EA0002D48006820F00300616808432A49086043
:102EB000FFF768FE064609E0FFF764FE801B41F25B
:102EC0008831884202D9032091E707E02248006850
:102ED00000F00C006168B0EB810FEDD11D48006877
:102EE00000F00700A84209D91A490D700846006889
:102EF00000F00700A84201D0012078E7207800F018
:102F00000400042807D11448006820F4E050E16868
:102F1000084311490860207800F00800082808D10B
:102F20000D48006820F46040216940EAC1000A4968
:102F3000086000F061F808490968C1F30311074A05
:102F4000515CC8400649086006480068FFF74AFE21
:102F500000204CE7003C024008380240AC4E01081B
:102F60003C000020340000200F2202600D4A12684D
:102F700002F0030242600B4A126802F0F002826023
:102F8000084A126802F4E052C260064A126802F46B
:102F90006042D2080261044A126802F007020A6025
:102FA0007047000008380240003C024001480068B9
:102FB000704700003C00002000B5FFF7F7FF044910
:102FC0000968C1F38221034A515CC84000BD00007A
:102FD00008380240BC4E010800B5FFF7E7FF04497E
:102FE0000968C1F34231034A515CC84000BD00008A
:102FF00008380240BC4E01082DE9F04700240025A6
:103000000026A1462548006800F00C0020B10428E5
:1030100005D008283AD105E0DFF8849039E0DFF8E0
:10302000849036E01D48001F006800F03F041B48F4
:10303000001F006800F4800078B11A481749091F82
:103040000968C1F38811A0FB0170014622460023E4
:103050003846FDF78AF905460EE011480F49091F69
:103060000968C1F38811A0FB0170014622460023C4
:103070003846FDF77AF905460848001F0068C0F396
:103080000140401C4600B5FBF6F902E0DFF8109065
:1030900000BF00BF4846BDE8F08700000838024086
:1030A0000024F400001BB700F8B504460CB9012059
:1030B000F8BD207800F00100002874D0F9480068BD
:1030C00000F00C0004280DD0F648006800F00C0059
:1030D000082813D1F348001F006800F48000B0F501
:1030E000800F0BD1EF4808380068C0F3404000283B
:1030F00059D06068002856D10120D9E700BF606828
:10310000B0F5803F08D1E7480838006840F48030C7
:10311000E449083908601EE06068B0F5A02F0DD1C1
:10312000E0480838006840F48020DE49083908602B
:103130000846006840F4803008600CE0D948083840
:10314000006820F48030D7490839086008460068D4
:1031500020F48020086000BF606890B1FFF712FD86
:10316000054606E0FFF70EFD401B642801D9032049
:103170009EE7CC4808380068C0F340400028F1D0F2
:1031800011E0FFF7FFFC054606E0FFF7FBFC401BE4
:10319000642801D903208BE7C24808380068C0F3CF
:1031A00040400028F1D1207800F0020002285FD1D1
:1031B000BC48006800F00C0058B1BA48006800F044
:1031C0000C0008281CD1B748001F006800F48000DC
:1031D000B0B9B44808380068C0F3400020B1E068D6
:1031E000012801D0012063E7AE480838006820F0CC
:1031F000F800216940EAC100AA490839086037E0AF
:10320000E06800B30120A8490860FFF7BBFC054651
:1032100006E0FFF7B7FC401B022801D9032047E76F
:10322000A04808380068C0F340000028F1D09D484D
:103230000838006820F0F800216940EAC100994987
:103240000839086014E0002097490860FFF79AFCED
:10325000054606E0FFF796FC401B022801D9032033
:1032600026E7904808380068C0F340000028F1D1F4
:10327000207800F0080008282CD16069A8B101204E
:103280008A490860FFF77EFC054606E0FFF77AFCF6
:10329000401B022801D903200AE782486C300068ED
:1032A000C0F340000028F1D014E000207F490860FE
:1032B000FFF768FC054606E0FFF764FC401B0228A8
:1032C00001D90320F4E677486C300068C0F3400071
:1032D0000028F1D1207800F00400042870D10027E4
:1032E00070483830006800F0805090B900BF00206E
:1032F00000906C483830006840F08050694938319F
:1033000008600846006800F08050009000BF00BFD1
:1033100001276748006800F48070B0B9644800680D
:1033200040F4807062490860FFF72CFC054606E017
:10333000FFF728FC401B022801D90320B8E65C48AF
:10334000006800F480700028F2D000BFA068012857
:1033500008D154486830006840F001005149683194
:1033600008601DE0A06805280DD14E48683000684F
:1033700040F004004B49683108600846006840F09E
:10338000010008600CE047486830006820F0010048
:103390004449683108600846006820F0040008606D
:1033A00000BFA068A8B1FFF7EDFB054609E0FFF7F5
:1033B000E9FB401B41F28831884202D9032077E6BD
:1033C00026E0384868300068C0F340000028EED09E
:1033D00013E0FFF7D7FB054608E0FFF7D3FB401BE0
:1033E00041F28831884201D9032061E62D486830D6
:1033F0000068C0F340000028EFD1012F07D1294811
:103400003830006820F0805026493831086000BF0D
:10341000A069002845D02348006800F00C00082867
:103420005DD0A069022845D100201F490866FFF73A
:10343000A9FB054606E0FFF7A5FB401B022801D9C2
:10344000032035E6174808380068C0F340600028BC
:10345000F1D1D4E907010843616A40EA81110122F0
:10346000A06AC2EB500041EA00412C20005D41EA15
:1034700000600C49091F086001200B490866FFF72E
:1034800081FB054606E0FFF77DFB401B022801D9C2
:1034900003200DE6034808380068C0F340600028A8
:1034A000F1D049E00838024000004742800E474210
:1034B00000700040002021490866FFF763FB0546C5
:1034C00006E0FFF75FFB401B022801D90320EFE570
:1034D0001B480068C0F340600028F2D12CE0A069CE
:1034E000012800D1E4E51648001D0668A0690128FE
:1034F00020D006F48001E06981421BD106F03F0133
:10350000206A814216D147F6C0703040616AB0EB44
:10351000811F0FD106F440310122A06AC2EB500096
:10352000B1EB004F06D106F070612C20005DB1EBCD
:10353000006F01D00120BBE50020B9E50000474243
:103540000038024010B504460CB9012010BD606A75
:1035500038B96068B0F5827F00D105E00021E161F3
:1035600002E00021216161610021A16294F8510013
:1035700028B9002084F85000204600F047F80220C7
:1035800084F851002068006820F04000216808603D
:10359000A08800F48270218901F404410843A189C4
:1035A00001F400610843217C01F002010843217D00
:1035B00001F001010843218B01F400710843217FD0
:1035C00001F0380108432021095D01F08001084322
:1035D000218D01F400510843216808600421A0698D
:1035E00001EA104094F8241001F01001084321680A
:1035F00048602068C06920F400602168C86100202C
:103600006065012084F8510000209FE710B586B066
:103610000446142101A8FCF7DFFF4B4920688842CB
:103620007ED100BF002000904848006840F48050E0
:10363000464908600846006800F48050009000BFCA
:1036400000BF00BF0020009040481438006840F0E0
:1036500002003E49143908600846006800F0020084
:10366000009000BF00BF00BF002000900846006827
:1036700040F0010008600846006800F0010000907A
:1036800000BF00BF1820019002200290012003908B
:10369000032004900520059001A92D48FFF772F939
:1036A00080200190022002900120039003200490CA
:1036B0000520059001A92748FFF764F92648274906
:1036C00008604FF0C0604860002124488160C160FC
:1036D0004FF480610161002141618161C1614FF45A
:1036E0004031016200214162FFF76CF808B1FEF73A
:1036F00048F800BF1948E064846300BF16481830DA
:10370000174908604FF0C06048604021144881604C
:103710000021C1604FF4806101610021416100E03E
:1037200010E08161C1614FF400310162002141620A
:10373000FFF748F808B1FEF724F800BF0848A06476
:10374000846300BF06B010BD003001404438024021
:103750000004024000000240406402408C0500204A
:10376000EC0500202DE9FE4F04460F4690461D460D
:103770000C9E01200190FFF705FA814694F851B0A4
:1037800060680290AA46BBF1010F0BD00298B0F519
:10379000827F04D1A06810B9BBF1040F02D00220CF
:1037A000BDE8FE8F1FB1B8F1000F00D00DB90120A8
:1037B000F6E700BF94F85000012801D10220EFE79E
:1037C000012084F8500000BF94F85100042802D072
:1037D000052084F8510000206065C4F83880E58732
:1037E000A5872763E586A586206460642068006855
:1037F00000F04000402805D02068006840F04000FC
:1038000021680860E068B0F5006F52D1606810B1BF
:10381000BAF1010F09D1206B00882168C860206BC4
:10382000801C2063E08E401EE0863BE020688068BC
:1038300000F00200022810D1E08E70B1019801283A
:103840000BD1206B00882168C860206B801C20632E
:10385000E08E401EE086002001902068806800F025
:10386000010068B1E08F58B12068C068A16B088082
:10387000A06B801CA063E08F401EE08701200190B8
:10388000FFF780F9A0EB0900B0420BD3701C48B1E0
:10389000012084F8510000BF002084F8500000BFD0
:1038A00003207DE7E08E0028C0D1E08F0028BDD145
:1038B00052E0606810B1BAF1010F09D1206B0078B5
:1038C00021680873206B401C2063E08E401EE08658
:1038D0003CE02068806800F00200022810D1E08EF1
:1038E00070B1019801280BD1206B00782168087312
:1038F000206B401C2063E08E401EE086002001907B
:103900002068806800F0010068B1E08F58B120683D
:10391000C068A16B0870A06B401CA063E08F401EC4
:10392000E08701200190FFF72DF9A0EB0900B042DC
:1039300001D3701C00B94EB9012084F8510000BFBA
:10394000002084F8500000BF032029E7E08E002803
:10395000BFD1E08F0028BCD14A463146204604F052
:1039600099F940B12020606500BF002084F8500024
:1039700000BF012014E7A06850B900BF00200090EC
:103980002068C068009020688068009000BF00BF79
:10399000012084F8510000BF002084F8500000BFCF
:1039A000606D08B10120FBE60020F9E67047704722
:1039B00030B502460B4600BF92F83C00012801D109
:1039C000022030BD012082F83C0000BF022082F8B6
:1039D0003D00106844681068816824F0700418681D
:1039E000044310684460184D1068A8421BD010684A
:1039F000B0F1804F17D0154D1068A84213D0144D68
:103A00001068A8420FD0134D1068A8420BD0124D79
:103A10001068A84207D0114D1068A84203D0104D7D
:103A20001068A84205D121F0800158680143106850
:103A30008160012082F83D0000BF002082F83C0038
:103A400000BF00BFBDE700000000014000040040CF
:103A500000080040000C004000040140004001400C
:103A60000018004010B504460CB9012010BD94F8B0
:103A70003D0028B9002084F83C00204600F026F8DC
:103A8000022084F83D00211D206804F0A7FA0120DF
:103A900084F8460000BF84F83E0001213F20015514
:103AA000402001554120015500BF00BF012084F88E
:103AB000420043200155442001554520015500BFD7
:103AC000012084F83D000020D0E7000008B5154A29
:103AD000016891420FD100BF00210091124909688D
:103AE00041F00801104A11601146096801F008010F
:103AF000009100BF15E00D4A0168914211D100BF4D
:103B0000002100910849091D096841F40031064A65
:103B1000121D11601146096801F40031009100BFC7
:103B200000BF08BD000C0040403802400044014086
:103B3000014691F83D00012801D001207047022084
:103B400081F83D000868C06840F001000B68D8604B
:103B50001A4B086898421BD00868B0F1804F17D004
:103B6000174B0868984213D0164B086898420FD03C
:103B7000154B086898420BD0144B0868984207D040
:103B8000134B0868984203D0124B086898420CD136
:103B90000868806800F00702062A0CD008680068F0
:103BA00040F001000B68186005E00868006840F00C
:103BB00001000B6818600020C0E700000000014011
:103BC0000004004000080040000C004000040140D8
:103BD00000400140001800402DE9F04104460D4628
:103BE000002700BF94F83C00012802D10220BDE864
:103BF000F081012084F83C0000BF022084F83D00E1
:103C00002068866826F0770626F47F46206886605E
:103C10002868502833D00CDC202850D004DC002841
:103C20004BD0102851D149E0302849D040284CD100
:103C300039E060282DD0702807D0B0F5805F03D020
:103C4000B0F5005F41D10DE041E0D5E902136A68AB
:103C5000206804F048FA2068866846F077062068F5
:103C6000866034E0D5E902136A68206804F03BFA04
:103C70002068806840F480402168886027E0EA6816
:103C80006968206804F020FB5021206804F036FAAF
:103C90001DE0EA686968206804F029FB602120685B
:103CA00004F02CFA13E0EA686968206804F00CFB61
:103CB0004021206804F022FA09E000BF00BF00BFE5
:103CC0002968206804F01AFA01E0012700BF00BF4C
:103CD000012084F83D0000BF002084F83C0000BFB4
:103CE000384684E7704770B504462068C568206888
:103CF000066906F00200022819D105F00200022828
:103D000015D1401F21680861012020772068806953
:103D100000F0030018B12046FFF7E4FF05E020465D
:103D200000F018F9204600F0E5F90020207706F0B1
:103D30000400042819D105F00400042815D1C0435B
:103D400021680861022020772068806900F44070B3
:103D500018B12046FFF7C6FF05E0204600F0FAF84C
:103D6000204600F0C7F90020207706F00800082858
:103D700019D105F00800082815D1C0432168086151
:103D8000042020772068C06900F0030018B12046A5
:103D9000FFF7A8FF05E0204600F0DCF8204600F021
:103DA000A9F90020207706F01000102819D105F09D
:103DB0001000102815D1C043216808610820207721
:103DC0002068C06900F4407018B12046FFF78AFFF0
:103DD00005E0204600F0BEF8204600F08BF90020F8
:103DE000207706F0010048B105F0010030B16FF016
:103DF000010021680861204600F004FA06F0800006
:103E0000802809D105F08000802805D1C0432168B1
:103E100008612046FFF7CAFD06F04000402809D19E
:103E200005F04000402805D1C043216808612046C4
:103E300000F0F4F906F02000202809D105F0200058
:103E4000202805D1C043216808612046FFF7AFFD57
:103E500070BD000010B586B00446142101A8FCF71F
:103E6000BBFB3549206888421ED100BF002000906E
:103E70003248006840F00800304908600846006891
:103E800000F00800009000BF00BF4FF48040019098
:103E9000022002900020039004900220059001A9C6
:103EA0002748FEF76FFD45E02649206888421FD16C
:103EB00000BF002000902148006840F080001F49AA
:103EC00008600846006800F08000009000BF00BF56
:103ED0004FF4E05001900220029001200390002056
:103EE00004900220059001A91748FEF74BFD21E040
:103EF0001649206888421DD100BF002000900F485D
:103F0000006840F020000D4908600846006800F095
:103F10002000009000BF00BF4020019002200290CE
:103F200001200390022004900320059001A9084875
:103F3000FEF728FD06B010BD0008004030380240F2
:103F4000000C0240000C0040001C024000440140F4
:103F50000014024070472DE9F04104460D46164614
:103F6000002700BF94F83C00012802D10220BDE8E0
:103F7000F081012084F83C0000BF36B1042E1BD034
:103F8000082E31D00C2E5ED145E02946206804F081
:103F9000BFF82068806940F00800216888612068C7
:103FA000806920F00400216888612068806929699F
:103FB00008432168886148E02946206804F0E0F859
:103FC0002068806940F40060216888612068806909
:103FD00020F480602168886120688069296940EA4E
:103FE00001202168886130E02946206804F006F944
:103FF0002068C06940F008002168C8612068C06975
:1040000020F004002168C8612068C069296908435C
:104010002168C86119E02946206804F02BF920685E
:10402000C06940F400602168C8612068C06920F45C
:1040300080602168C8612068C069296940EA012060
:104040002168C86101E0012700BF00BF00BF002058
:1040500084F83C0000BF384689E710B504460CB927
:10406000012010BD94F83D0028B9002084F83C00E0
:10407000204600F025F8022084F83D00211D20682C
:1040800003F0ACFF012084F8460000BF84F83E0036
:1040900001213F200155402001554120015500BF1D
:1040A00000BF012084F842004320015544200155FF
:1040B0004520015500BF012084F83D000020D0E7D5
:1040C00008B50A4A016891420FD100BF0021009152
:1040D0000749096841F00401054A11601146096861
:1040E00001F00401009100BF00BF08BD00080040BE
:1040F000403802407047000070B504460D4615B9BF
:1041000094F83E000BE0042D02D13F20005D06E054
:10411000082D02D14020005D01E04120005D012812
:1041200001D0012070BD1DB9022084F83E000EE0D0
:10413000042D03D102213F20015508E0082D03D1B1
:1041400002214020015502E00221412001550122B7
:104150002946206803F0B6FF23492068884203D02F
:1041600022492068884201D1012000E0002028B1C6
:104170002068406C40F40040216848641A49206877
:1041800088421BD02068B0F1804F17D018492068B2
:10419000884213D01749206888420FD016492068FA
:1041A00088420BD011492068884207D01349206803
:1041B000884203D01249206888420CD12068806868
:1041C00000F00706062E0CD02068006840F00100C1
:1041D0002168086005E02068006840F0010021685F
:1041E000086000209EE7000000000140000401403C
:1041F0000004004000080040000C00400040014066
:104200000018004010B5044603492068884201D1D7
:10421000FEF7BEFC10BD0000000400407047704770
:10422000704700002DE9F84F0446206805682068B3
:10423000C668206847694FF00009CA4605F00F09B3
:10424000B9F1000F0AD105F0200038B106F02000C6
:1042500020B1204604F0BBF8BDE8F88FB9F1000F9B
:104260007CD007F0010018B906F49070002875D0D2
:1042700005F0010030B106F4807018B1606C40F0B8
:104280000100606405F0040030B107F0010018B1CE
:10429000606C40F00200606405F0020030B107F08D
:1042A000010018B1606C40F00400606405F0080083
:1042B00048B106F0200010B907F0010018B1606C99
:1042C00040F008006064606C002846D005F02000D3
:1042D00028B106F0200010B1204604F078F82068DC
:1042E0004069C0F3801A606C00F0080010B9BAF1A0
:1042F000000F2DD0204604F024F82068406900F01B
:104300004000402820D100BF00BF2168143151E88F
:10431000001F21F040002168143141E80002002A0A
:10432000F3D100BFE06B50B17748E16B0865E06BFB
:10433000FEF713F988B1E06B016D88470DE0204668
:10434000FFF76EFF09E009E02046FFF769FF04E090
:104350002046FFF765FF002060647DE7206B0128A1
:1043600078D105F01000002874D006F01000002865
:10437000FAD000BF002000902068006800902068FC
:104380004068009000BF00BF2068406900F0400016
:10439000402860D1E06B006840681FFA80F8B8F1EF
:1043A000000F56D0A08D404553DDA4F82E80E06B61
:1043B000C069B0F5807F43D000BF00BF21680C31D9
:1043C00051E8001F21F4807021680C3141E800029F
:1043D000002AF3D100BF00BF00BF2168143151E8AB
:1043E000001F21F001002168143141E80002002A79
:1043F000F3D100BF00BF00BF2168143151E8001F96
:1044000021F040002168143141E80002002AF3D174
:1044100000BF202084F842000020206300BF00BFBE
:1044200021680C3151E8001F21F0100021680C3187
:1044300041E80002002AF3D100BFE06BFEF737F835
:1044400002206063A08DE28D801A81B22046FFF7C2
:10445000E6FE01E742E0A08DE18D401A1FFA80F8E8
:10446000E08DD0B3B8F1000F37D000BF00BF216896
:104470000C3151E8001F21F4907021680C3141E8A3
:104480000002002AF3D100BF00BF00BF2168143131
:1044900051E8001F21F001002168143141E80002B9
:1044A000002AF3D100BF202084F8420000202063BE
:1044B00000BF00BF21680C3151E8001F21F010003F
:1044C00021680C3141E80002002AF3D100BF02202C
:1044D000606341462046FFF7A2FEBDE605F080007E
:1044E00030B106F0800018B1204604F005F9B3E6BB
:1044F00005F0400030B106F0400018B1204603F04E
:1045000056FFA9E600BFA7E62F83000810B50446B2
:104510000CB9012010BDA06900B100E000BF94F803
:10452000410028B9002084F84000204600F02AF815
:10453000242084F841002068C06820F400502168DD
:10454000C860204603F0C2FF2068006920F4904054
:10455000216808612068406920F02A0021684861CC
:104560002068C06840F400502168C8600020606482
:10457000202084F8410084F842000020606300BFDE
:10458000C8E7000010B586B00446142101A8FCF766
:1045900023F89E492068884256D100BF0020009031
:1045A0009B48006840F01000994908600846006880
:1045B00000F01000009000BF00BF00BF002000907E
:1045C00093481438006840F002009149143908609B
:1045D0000846006800F00200009000BF00BF00BF66
:1045E000002000900846006840F00100086008467E
:1045F000006800F00100009000BF00BF8020019023
:1046000002200290002003900320049007200590D0
:1046100001A98048FEF7B6F94FF40070019002201E
:10462000029000200390032004900720059001A928
:104630007948FEF7A7F9002205212520FEF76AFB3D
:104640002520FEF753FBDEE07449206888425CD1E8
:1046500000BF002000906E48001F006840F48020DA
:104660006B49091F08600846006800F4802000902C
:1046700000BF00BF00BF00200090654814380068EC
:1046800040F004006249143908600846006800F0F0
:104690000400009000BF00BF4FF440600190022072
:1046A000029000200390032004900720059001A9A8
:1046B0005B48FEF767F95B485B4908604FF00060B4
:1046C0004860002158488160C1604FF480610161F9
:1046D0000021416181614FF48071C1614902016231
:1046E00000214162FEF76EF808B1FDF74AF800BFFD
:1046F0004D48E063846300BF002205212720FEF7B8
:1047000009FB2720FEF7F2FA7DE04849206888423D
:1047100079D100BF002000903D48006840F02000A3
:104720003B4908600846006800F02000009000BF88
:1047300000BF00BF0020009035481438006840F0EA
:1047400040003349143908600846006800F0400012
:10475000009000BF00BF4FF48440019002200290FF
:1047600000200390032004900820059001A9304800
:10477000FEF708F92F48304908608005486000219D
:104780002D488160C1604FF4806101610021416169
:104790008161C1614FF40031016200214162FEF785
:1047A00011F808B1FCF7EDFF00BF2348E063846314
:1047B00000BF20487830214908604FF020604860F1
:1047C00040211E4881600021C1604FF48061016179
:1047D000002141618161C1614FF48031016200219A
:1047E0004162FDF7EFFF08B1FCF7CBFF00BF1348B4
:1047F000A063846300BF002205214720FEF78AFAE8
:104800004720FEF773FA06B010BD0000001001400B
:1048100044380240000402400000024000480040CA
:104820000008024028600240FC07002000140140FC
:1048300000180240286402405C080020BC080020E8
:1048400070472DE9F84F04460E46174699464FF03B
:10485000000A94F84100202850D106B117B9012070
:10486000BDE8F88F00206064212084F84100FEF745
:1048700089F98246A784E784A068B0F5805F04D1F7
:10488000206910B90025B04602E035464FF0000817
:104890001EE05346002280212046CDF8009003F010
:1048A0005BFF20B1202084F841000320D8E745B900
:1048B000B8F80000C0F308002168486008F1020859
:1048C00003E02878216848606D1CE08C401EE0847D
:1048D000E08C0028DDD15346002240212046CDF84F
:1048E000009003F039FF20B1202084F8410003201C
:1048F000B6E7202084F841000020B1E70220AFE7AE
:10490000704700BFFEE7000086B007200CF0B6FC41
:1049100002E064200CF0B2FCFBF7A4FF0028F8D101
:1049200009F036F9DFED7C1A9FED7C1ADFED7C0A89
:104930009FED7C0A7C497D4809F06CFD00200CF05D
:10494000DDFC04460FF0D0F9794908601021794860
:10495000C16108227849794803F0DCF801207849E0
:104960000870D8E000BF4FF0FF3101200EF08AFC44
:104970000128F8D17348007800F0080050B1714860
:10498000007820F008006F4908706F496A48401CA1
:10499000FBF734FF6D48007800F0040060B16B480D
:1049A000007820F0040069490870674A0C32A2F1CF
:1049B0001C016748FBF7A6FE6648007800F004007B
:1049C00090B16448007820F00400624908705E49A4
:1049D000091F6148FCF74EF85B481438D0ED040A13
:1049E000B0EE600A0CF076FA5748143890ED050ADC
:1049F0005A48D0ED000A30EE600A594880ED000AAE
:104A00005148143890ED060A5648D0ED000A30EEB1
:104A1000600A534880ED010A4B48143890ED070AAC
:104A20005148D0ED000A30EE600A4D4880ED020A90
:104A300045481438D0ED010AB0EE600ADFED4B0AAC
:104A40004B480BF0E9FD40481438D0ED020AB0EEB7
:104A5000600ADFED460A4648001D0BF0DDFD3A48CE
:104A60001438D0ED030AB0EE600ADFED400A40488A
:104A700008300BF0D1FD05200CE0411E3D4A02EB51
:104A8000810191ED000A114601EB800181ED000AE0
:104A9000411EC8B20028F0DC354890ED020A3548C6
:104AA00080ED000A324890ED023AF0EE432A90ED94
:104AB000013AB0EE432A90ED003AF0EE431A28484E
:104AC00090ED023AB0EE431A90ED013AF0EE430A4F
:104AD00090ED003AB0EE430A274809F021FA264843
:104AE00090ED010A8DED020A90ED020A8DED030AA8
:104AF00090ED030A8DED040A90ED000A8DED050A94
:104B00000020012103460222CDE900101B4902A822
:104B10000CF0AAFF00BF25E700007A4400007AC429
:104B200000A08C4500A08CC548010020AC5D002091
:104B3000040100203405002008010020100100209D
:104B40002C01002029010020005E00202A01002005
:104B5000A25D00202B01002023010020B4000020D2
:104B6000105E0020B8000020BC0000208FC2753D00
:104B70001C5E0020285E0020405E0020505E002069
:104B8000C8200EF0E9FD09F085F913E00A48007825
:104B9000012802D109F098F90CE0084800780128B2
:104BA00002D109F04BF905E009F01CF909F046F9CA
:104BB00009F08AF9EAE700003502002034020020FB
:104BC00010B50E480E4908600320486000210C48CB
:104BD0008160C1604FF4102101614FF40011416107
:104BE0000021017641768176C17601774177FDF724
:104BF000D7F908B1FCF7C5FD10BD00000064004006
:104C0000E404002010B50F480F49086003204860F5
:104C100000210D488160C1604FF4102101614FF403
:104C20000011416100210176417681760121C17632
:104C3000002101774177FDF7B3F908B1FCF7A1FD39
:104C400010BD0000006800400C05002008B500BF42
:104C5000002000902248006840F48000204908604D
:104C60000846006800F48000009000BF00BF00BF4D
:104C7000002000900846006840F4001008600846D4
:104C8000006800F40010009000BF00BF0022052162
:104C90000C20FEF73FF80C20FEF728F80022052133
:104CA0003920FEF737F83920FEF720F800220521D9
:104CB0003A20FEF72FF83A20FEF718F800220521D7
:104CC0003B20FEF727F83B20FEF710F800220521D5
:104CD0004520FEF71FF84520FEF708F808BD000044
:104CE0003038024000B5CDB01C22414946A8FBF740
:104CF00017FC002146A80CF0D2FA3E4908601C229D
:104D00003B491C313FA8FBF70BFC00213FA80CF0EE
:104D1000C6FA394908601C223549383138A8FBF7F2
:104D2000FFFB002138A80CF0BAFA344908601C22B5
:104D30002F49543131A8FBF7F3FB002131A80CF0C7
:104D4000AEFA2F4908601C22294970312AA8FBF7C6
:104D5000E7FB00212AA80CF0A2FA2A4908601C22CD
:104D600023498C3123A8FBF7DBFB002123A80CF09F
:104D700096FA254908601C221D49A8311CA8FBF79A
:104D8000CFFB00211CA80CF08AFA204908601C22E5
:104D90001749C43115A8FBF7C3FB002115A80CF077
:104DA0007EFA1B4908601C221149E0310EA8FBF76E
:104DB000B7FB00210EA80CF072FA164908601C22FD
:104DC0000B49FC3107A8FBF7ABFB002107A80CF04F
:104DD00066FA114908601C2210496846FBF7A0FBDF
:104DE000002168460CF05BFA0D4908604DB000BD2B
:104DF000704D010800000020040000200800002081
:104E00000C000020100000201400002018000020DA
:104E10001C0000202000002024000020884E0108F3
:104E20002800002000B587B0142102A8FBF7D4FBAE
:104E300000BF002001905B48006840F00200594923
:104E400008600846006800F00200019000BF00BF43
:104E500000BF002001900846006840F04000086054
:104E60000846006800F04000019000BF00BF00BF8E
:104E7000002001900846006840F0010008600846E4
:104E8000006800F00100019000BF00BF00BF0020DB
:104E900001900846006840F0080008600846006875
:104EA00000F00800019000BF00BF00BF002001908B
:104EB0000846006840F0040008600846006800F0FA
:104EC0000400019000BF00BF00BF00200190084611
:104ED000006840F0800008600846006800F080002C
:104EE000019000BF00BF00BF00200190084600688D
:104EF00040F0200008600846006800F020000190A3
:104F000000BF00BF012210212748FDF735FE012216
:104F100011462648FDF730FE102002900120039034
:104F200004900220059002A91F48FDF72BFD3020B8
:104F300002904FF4881003900120049002A91C48AD
:104F4000FDF720FD012002904FF48810039000200F
:104F5000049002A91748FDF715FD01200290039067
:104F600004900220059002A91048FDF70BFD0022D5
:104F700005210620FDF7CEFE0620FDF7B7FE002234
:104F800005210A20FDF7C6FE0A20FDF7AFFE00222C
:104F900005211720FDF7BEFE1720FDF7A7FE07B07D
:104FA00000BD000030380240000002400004024012
:104FB000000802400018024010B50F480F49086071
:104FC0004FF48270486000210C488160C16002216A
:104FD000016101214161490281613821C1610021E2
:104FE0000162416281620A21C162FEF7ABFA08B137
:104FF000FCF7C7FB10BD0000003001403405002065
:1050000000B587B01C216846FBF7E6FA154816493B
:1050100008600020486000211348816041F2873118
:10502000C160002101618161FEF71CFD08B1FCF740
:10503000A8FB0D48FFF711F808B1FCF7A2FB6020B0
:1050400000900020019002900490002269460648DA
:10505000FEF781FF08B1FCF794FB0348FEF7FAFE68
:1050600007B000BD00440140DC06002000B589B057
:105070000020079008901C216846FBF7ADFA1848FD
:1050800018490860A72048600021164881604FF643
:10509000FF71C160002101618161FEF7DEFF08B18F
:1050A000FCF76FFB00200790089007A90D48FEF75A
:1050B0007FFC08B1FCF765FB6020009000200190A8
:1050C00002900490082269460648FEF744FF08B1A2
:1050D000FCF757FB0348FEF7BDFE09B000BD00001A
:1050E000000800404C06002000B58DB0002009905B
:1050F0000A900B900C90079008901C216846FBF7D3
:105100006BFA28482849086000204860002126489A
:10511000816040F2E731C160002101618161FEF7E9
:10512000A1FC08B1FCF72DFB4FF48050099009A9B0
:105130001D48FEF751FD08B1FCF723FB1A48FEF7A6
:105140008CFF08B1FCF71DFB00200790089007A911
:105150001548FEF72DFC08B1FCF713FB602000900A
:105160000020019002900490002269460E48FEF74C
:10517000F2FE08B1FCF705FB042269460A48FEF777
:10518000EAFE08B1FCF7FDFA082269460648FEF778
:10519000E2FE08B1FCF7F5FA0348FEF75BFE0DB03E
:1051A00000BD0000000C00409406002010B50B4824
:1051B0000B4908604FF4E1304860002108488160E5
:1051C000C16001610C21416100218161C161FFF772
:1051D0009DF908B1FCF7D5FA10BD000000100140A0
:1051E0002407002010B50B480B4908600B484860A5
:1051F000002109488160C1604FF4806101610C2188
:10520000416100218161C161FFF780F908B1FCF7BC
:10521000B8FA10BD004800406C070020A0860100CD
:1052200010B50B480B4908604FF4E130486000218D
:1052300008488160C16001610C21416100218161E8
:10524000C161FFF763F908B1FCF79BFA10BD0000DC
:1052500000140140B407002000BFFEE700BFFEE7D6
:1052600010B5234B1B685B6943F04003204C246856
:1052700063611F4B1B68DB6843F010031C4C246800
:10528000E3601C4B1B681B6823F00103194C246866
:10529000236007E0174B1B681B6823F00103154CC4
:1052A00024682360134B1B681B6803F00103002B69
:1052B000F0D1114B0F4C2468A3600E4B1B68D860D3
:1052C0000C4B1B6819610B4B1B685A60094B1B6820
:1052D0001B6843F48023074C24682360054B1B683C
:1052E0001B6843F00103034C2468236010BD0000D9
:1052F0006C070020FC070020044800400BF04CFE27
:105300004FF480622C492D4805F03BFC4FF40072AD
:105310002B49A1F500700DF0EFFF002400254FF49C
:1053200096700EF019FA45E00CF0AEFF0A200EF070
:1053300013FA0BF075FC601C84B20A2C00DD00240B
:10534000681C85B2642D00DB00251E48408A00F4ED
:10535000807098B11C480078012807D11B4800785C
:10536000012803D11A480078012807D001201649E6
:10537000087016490870164908701BE0392D07D1CE
:105380001048408A00F4807010B10DF017FC11E055
:10539000072C09D10F4991ED020ABDEEC00A10EEAB
:1053A000100A0DF0BFF805E0012C02D10DF03AF91A
:1053B00000E000BFB8E70000606100204861002005
:1053C000E9670020587B002064010020650100206F
:1053D00066010020107B002010B5FB4B1B681B688A
:1053E00023F00103F84C24682360F84B1B681B680A
:1053F00023F00103F54C2468236007E0F24B1B689F
:105400001B6823F00103F04C24682360EE4B1B68FB
:105410001B6803F00103002BF0D107E0EB4B1B6886
:105420001B6823F00103E94C24682360E74B1B68E9
:105430001B6803F00103002BF0D1E54BDB6C1B680C
:10544000E44CA34275D9E24BDB6C1B68E24CA342EF
:1054500001D1202368E0DE4BDB6C1B68DD4C483C4F
:10546000A34201D120235FE0D94BDB6C1B68DA4CEF
:105470006034A34201D1202356E0D54BDB6C1B687E
:10548000D44C1834A34201D120234DE0D04BDB6C27
:105490001B68D14C1834A34201D1DB1444E0CC4B3F
:1054A000DB6C1B68CB4C303CA34201D1DB143BE0EE
:1054B000C74BDB6C1B68C84C7834A34201D1DB14AA
:1054C00032E0C34BDB6C1B68C24C3034A34201D1C9
:1054D000DB1429E0BE4BDB6C1B68BF4C3034A342AD
:1054E00002D14FF400131FE0B94BDB6C1B68B94CC1
:1054F000183CA34202D14FF4001315E0B44BDB6C0F
:105500001B68B54C9034A34202D14FF400130BE05A
:10551000AF4BDB6C1B68AF4C4834A34202D14FF455
:10552000001301E04FF00063AA4C4C3C236076E18D
:10553000FFE7A74BDB6C1B68A74CA834A34275D9C7
:10554000A34BDB6C1B68A44CA34201D1202369E070
:105550009F4BDB6C1B689F4C483CA34201D120232E
:1055600060E09B4BDB6C1B689B4C6034A34201D119
:10557000202357E0964BDB6C1B68964C1834A342F3
:1055800001D120234EE0924BDB6C1B68924C183407
:10559000A34201D1DB1445E08D4BDB6C1B688D4CC5
:1055A000303CA34201D1DB143CE0894BDB6C1B682F
:1055B000894C7834A34201D1DB1433E0844BDB6C9B
:1055C0001B68844C3034A34201D1DB142AE0804BA9
:1055D000DB6C1B68804C3034A34202D14FF40013C3
:1055E00020E07B4BDB6C1B687A4C183CA34202D159
:1055F0004FF4001316E0764BDB6C1B68764C90344E
:10560000A34202D14FF400130CE0714BDB6C1B681A
:10561000704C4834A34203D14FF4001302E005E07C
:105620004FF000636B4C503C2360F8E0684BDB6C40
:105630001B68694C4834A34275D9654BDB6C1B6809
:10564000654CA34201D1202368E0614BDB6C1B68F1
:10565000604C483CA34201D120235FE05C4BDB6CF3
:105660001B685D4C6034A34201D1202356E0584BA7
:10567000DB6C1B68574C1834A34201D120234DE04A
:10568000534BDB6C1B68544C1834A34201D1DB1420
:1056900044E04F4BDB6C1B684E4C303CA34201D1C5
:1056A000DB143BE04A4BDB6C1B684B4C7834A34269
:1056B00001D1DB1432E0464BDB6C1B68454C3034C7
:1056C000A34201D1DB1429E0414BDB6C1B68424C47
:1056D0003034A34202D14FF400131FE03C4BDB6C8B
:1056E0001B683C4C183CA34202D14FF4001315E058
:1056F000374BDB6C1B68384C9034A34202D14FF41B
:1057000000130BE0324BDB6C1B68324C4834A34275
:1057100002D14FF4001301E04FF000632E4C103C17
:10572000E3607CE0FFE72A4BDB6C1B682A4CA3425A
:1057300001D1202370E0264BDB6C1B68254C483CD4
:10574000A34201D1202367E0214BDB6C1B68224C74
:105750006034A34201D120235EE01D4BDB6C1B684B
:105760001C4C1834A34201D1202355E0184BDB6CAC
:105770001B68194C1834A34201D1DB144CE0144BC4
:10578000DB6C1B68134C303CA34201D1DB1443E0BB
:105790000F4BDB6C1B68104C7834A34201D1DB1437
:1057A0003AE00B4BDB6C1B680A4C3034A34201D14E
:1057B000DB1431E0064BDB6C1B68074C3034A34232
:1057C0000CD14FF4001327E08C050020EC050020DD
:1057D000340500205864024010600240F74BDB6C37
:1057E0001B68F74CA34202D14FF4001314E0F34BB3
:1057F000DB6C1B68F34CA34202D14FF400130BE0A7
:10580000EE4BDB6C1B68EE4C6034A34202D14FF4CC
:10581000001301E04FF00063EA4CA03CA360E74BAB
:10582000DB6C1B68E64C1834A34274D9E34BDB6C89
:105830001B68E44C903CA34201D1102366E0DF4B8F
:10584000DB6C1B68DE4C303CA34201D110235DE0D1
:10585000DA4BDB6C1B68DB4C303CA34201D11023DC
:1058600054E0D64BDB6C1B68D54C3034A34201D1DD
:1058700010234BE0D14BDB6C1B68D24C783CA3422D
:1058800001D11B1542E0CD4BDB6C1B68CC4C183CA6
:10589000A34201D11B1539E0C84BDB6C1B68C94C16
:1058A000183CA34201D11B1530E0C44BDB6C1B68D4
:1058B000C34C4834A34201D11B1527E0BF4BDB6C1E
:1058C0001B68C04C603CA34202D14FF480131DE022
:1058D000BA4BDB6C1B68BA4CA34202D14FF4801365
:1058E00014E0B64BDB6C1B68B64CA34202D14FF4FC
:1058F00080130BE0B14BDB6C1B68B14C6034A342EE
:1059000002D14FF4801301E04FF08063AC4C343C83
:10591000236070E1FFE7A94BDB6C1B68A94C1834CE
:10592000A34274D9A54BDB6C1B68A64C903CA342E8
:1059300001D1102366E0A14BDB6C1B68A04C303C0E
:10594000A34201D110235DE09C4BDB6C1B689D4C96
:10595000303CA34201D1102354E0984BDB6C1B6810
:10596000974C3034A34201D110234BE0934BDB6CB6
:105970001B68944C783CA34201D11B1542E08F4B2D
:10598000DB6C1B688E4C183CA34201D11B1539E01F
:105990008A4BDB6C1B688B4C183CA34201D11B1556
:1059A00030E0864BDB6C1B68854C4834A34201D148
:1059B0001B1527E0814BDB6C1B68824C603CA342CB
:1059C00002D14FF480131DE07C4BDB6C1B687C4CD8
:1059D000A34202D14FF4801314E0784BDB6C1B68B8
:1059E000784CA34202D14FF480130BE0734BDB6C75
:1059F0001B68734C6034A34202D14FF4801301E062
:105A00004FF080636E4C383C2360F4E0FFE76B4B53
:105A1000DB6C1B686B4C483CA34274D9674BDB6C56
:105A20001B68684C903CA34201D1102366E0634B95
:105A3000DB6C1B68624C303CA34201D110235DE05B
:105A40005E4BDB6C1B685F4C303CA34201D11023E2
:105A500054E05A4BDB6C1B68594C3034A34201D1E3
:105A600010234BE0554BDB6C1B68564C783CA34233
:105A700001D11B1542E0514BDB6C1B68504C183CAC
:105A8000A34201D11B1539E04C4BDB6C1B684D4C1C
:105A9000183CA34201D11B1530E0484BDB6C1B685E
:105AA000474C4834A34201D11B1527E0434BDB6C24
:105AB0001B68444C603CA34202D14FF480131DE0AC
:105AC0003E4BDB6C1B683E4CA34202D14FF480136B
:105AD00014E03A4BDB6C1B683A4CA34202D14FF402
